{
  "contractName": "NusaCareAuditAndAccess",
  "abi": [
    {
      "inputs": [
        {
          "internalType": "address",
          "name": "",
          "type": "address"
        },
        {
          "internalType": "address",
          "name": "",
          "type": "address"
        }
      ],
      "name": "accessPermissions",
      "outputs": [
        {
          "internalType": "bool",
          "name": "",
          "type": "bool"
        }
      ],
      "stateMutability": "view",
      "type": "function"
    },
    {
      "inputs": [
        {
          "internalType": "uint256",
          "name": "",
          "type": "uint256"
        }
      ],
      "name": "dataRecords",
      "outputs": [
        {
          "internalType": "address",
          "name": "userAddress",
          "type": "address"
        },
        {
          "internalType": "string",
          "name": "cid",
          "type": "string"
        },
        {
          "internalType": "string",
          "name": "dataType",
          "type": "string"
        },
        {
          "internalType": "uint256",
          "name": "timestamp",
          "type": "uint256"
        }
      ],
      "stateMutability": "view",
      "type": "function"
    },
    {
      "inputs": [
        {
          "internalType": "address",
          "name": "_userAddress",
          "type": "address"
        },
        {
          "internalType": "string",
          "name": "_cid",
          "type": "string"
        },
        {
          "internalType": "string",
          "name": "_dataType",
          "type": "string"
        }
      ],
      "name": "recordData",
      "outputs": [],
      "stateMutability": "nonpayable",
      "type": "function"
    },
    {
      "inputs": [
        {
          "internalType": "address",
          "name": "_doctorAddress",
          "type": "address"
        },
        {
          "internalType": "bool",
          "name": "_hasPermission",
          "type": "bool"
        }
      ],
      "name": "setAccessPermission",
      "outputs": [],
      "stateMutability": "nonpayable",
      "type": "function"
    },
    {
      "inputs": [
        {
          "internalType": "address",
          "name": "_patientAddress",
          "type": "address"
        },
        {
          "internalType": "address",
          "name": "_doctorAddress",
          "type": "address"
        },
        {
          "internalType": "string",
          "name": "_action",
          "type": "string"
        }
      ],
      "name": "checkPermission",
      "outputs": [
        {
          "internalType": "bool",
          "name": "",
          "type": "bool"
        }
      ],
      "stateMutability": "view",
      "type": "function"
    }
  ],
  "bytecode": "0x608060405234801561001057600080fd5b50610835806100206000396000f3fe608060405234801561001057600080fd5b50600436106100575760003560e01c80633790a1231461005c578063495f62921461008457806364b3b525146100ca578063ab4ba5c4146100f5578063c8592e0b14610108575b600080fd5b61006f61006a3660046104b2565b61012b565b60405190151581526020015b60405180910390f35b6100c8610092366004610510565b336000908152602081815260408083206001600160a01b0395909516835293905291909120805460ff1916911515919091179055565b005b61006f6100d836600461054c565b600060208181529281526040808220909352908152205460ff1681565b6100c861010336600461057f565b6101ca565b61011b6101163660046105e9565b61029d565b60405161007b9493929190610652565b604051721491505117d351511250d05317d49150d3d491606a1b60208201526000906033016040516020818303038152906040528051906020012082604051602001610177919061069a565b60405160208183030381529060405280519060200120036101bf57506001600160a01b038084166000908152602081815260408083209386168352929052205460ff166101c3565b5060005b9392505050565b604080516080810182526001600160a01b0385811682526020820185815292820184905242606083015260018054808201825560009190915282517fb10e2d527612073b26eecdfd717e6a320cf44b4afac2b0732d9fcbe2b7fa0cf6600490920291820180546001600160a01b031916919093161782559251919290917fb10e2d527612073b26eecdfd717e6a320cf44b4afac2b0732d9fcbe2b7fa0cf790910190610276908261073f565b506040820151600282019061028b908261073f565b50606082015181600301555050505050565b600181815481106102ad57600080fd5b6000918252602090912060049091020180546001820180546001600160a01b039092169350906102dc906106b6565b80601f0160208091040260200160405190810160405280929190818152602001828054610308906106b6565b80156103555780601f1061032a57610100808354040283529160200191610355565b820191906000526020600020905b81548152906001019060200180831161033857829003601f168201915b50505050509080600201805461036a906106b6565b80601f0160208091040260200160405190810160405280929190818152602001828054610396906106b6565b80156103e35780601f106103b8576101008083540402835291602001916103e3565b820191906000526020600020905b8154815290600101906020018083116103c657829003601f168201915b5050505050908060030154905084565b80356001600160a01b038116811461040a57600080fd5b919050565b634e487b7160e01b600052604160045260246000fd5b600082601f83011261043657600080fd5b813567ffffffffffffffff808211156104515761045161040f565b604051601f8301601f19908116603f011681019082821181831017156104795761047961040f565b8160405283815286602085880101111561049257600080fd5b836020870160208301376000602085830101528094505050505092915050565b6000806000606084860312156104c757600080fd5b6104d0846103f3565b92506104de602085016103f3565b9150604084013567ffffffffffffffff8111156104fa57600080fd5b61050686828701610425565b9150509250925092565b6000806040838503121561052357600080fd5b61052c836103f3565b91506020830135801515811461054157600080fd5b809150509250929050565b6000806040838503121561055f57600080fd5b610568836103f3565b9150610576602084016103f3565b90509250929050565b60008060006060848603121561059457600080fd5b61059d846103f3565b9250602084013567ffffffffffffffff808211156105ba57600080fd5b6105c687838801610425565b935060408601359150808211156105dc57600080fd5b5061050686828701610425565b6000602082840312156105fb57600080fd5b5035919050565b60005b8381101561061d578181015183820152602001610605565b50506000910152565b6000815180845261063e816020860160208601610602565b601f01601f19169290920160200192915050565b6001600160a01b038516815260806020820181905260009061067690830186610626565b82810360408401526106888186610626565b91505082606083015295945050505050565b600082516106ac818460208701610602565b9190910192915050565b600181811c908216806106ca57607f821691505b6020821081036106ea57634e487b7160e01b600052602260045260246000fd5b50919050565b601f82111561073a57600081815260208120601f850160051c810160208610156107175750805b601f850160051c820191505b8181101561073657828155600101610723565b5050505b505050565b815167ffffffffffffffff8111156107595761075961040f565b61076d8161076784546106b6565b846106f0565b602080601f8311600181146107a2576000841561078a5750858301515b600019600386901b1c1916600185901b178555610736565b600085815260208120601f198616915b828110156107d1578886015182559484019460019091019084016107b2565b50858210156107ef5787850151600019600388901b60f8161c191681555b5050505050600190811b0190555056fea2646970667358221220d6241f6243e24effa151b6052bc05761bd2a972967c6e4d16f9d37363100223964736f6c63430008130033",
  "immutableReferences": {},
  "source": "// SPDX-License-Identifier: MIT\r\npragma solidity ^0.8.0;\r\n\r\ncontract NusaCareAuditAndAccess {\r\n    // Struktur data untuk mencatat riwayat data medis/rekomendasi\r\n    struct DataRecord {\r\n        address userAddress;      // Alamat pengguna (Pasien/Dokter)\r\n        string cid;               // Content Identifier (Hash IPFS)\r\n        string dataType;          // MEDICAL_RECORD, HERBAL_DATA, or RECOMMENDATION_RESULT\r\n        uint256 timestamp;        // Waktu pencatatan\r\n    }\r\n\r\n    // Peta untuk menyimpan izin akses Pasien ke Dokter\r\n    // Mapping: PatientAddress => DoctorAddress => HasPermission\r\n    mapping(address => mapping(address => bool)) public accessPermissions;\r\n\r\n    // Array untuk mencatat semua transaksi data (Audit Trail)\r\n    DataRecord[] public dataRecords;\r\n\r\n    // Fungsi untuk Mencatat CID ke Blockchain (Audit Trail) [cite: 540]\r\n    function recordData(address _userAddress, string memory _cid, string memory _dataType) public {\r\n        // Hanya alamat yang disetujui (misal: backend service wallet) yang dapat memanggil fungsi ini\r\n        dataRecords.push(DataRecord(\r\n            _userAddress,\r\n            _cid,\r\n            _dataType,\r\n            block.timestamp\r\n        ));\r\n        // Catatan: Hash transaksi akan menjadi rekam jejak permanen [cite: 511]\r\n    }\r\n\r\n    // Fungsi untuk Memberi/Mencabut Izin Akses (Smart Contract Kontrol Akses) [cite: 544]\r\n    function setAccessPermission(address _doctorAddress, bool _hasPermission) public {\r\n        // Kontrol akses: Hanya pasien (msg.sender) yang bisa mengubah izin datanya\r\n        accessPermissions[msg.sender][_doctorAddress] = _hasPermission;\r\n        // Transaksi ini mencatat jejak persetujuan pasien [cite: 432]\r\n    }\r\n\r\n    // Fungsi untuk Memeriksa Izin Akses (Dipanggil oleh Backend Flask)\r\n    function checkPermission(address _patientAddress, address _doctorAddress, string memory _action) public view returns (bool) {\r\n        // Jika aksinya adalah READ/CRUD data medis:\r\n        if (keccak256(abi.encodePacked(_action)) == keccak256(abi.encodePacked(\"READ_MEDICAL_RECORD\"))) {\r\n            return accessPermissions[_patientAddress][_doctorAddress];\r\n        }\r\n        // Logika lain untuk aksi lain...\r\n        return false;\r\n    }\r\n}",
  "sourcePath": "D:\\Semester 7\\TA\\source code\\Personal-Herbal-Recommendation\\backend\\contracts\\NusaCare.sol",
  "compiler": {
    "name": "solc",
    "version": "0.8.19+commit.7dd6d404.Emscripten.clang"
  },
  "schemaVersion": "3.4.16",
  "updatedAt": "2025-12-20T16:48:45.154Z",
  "devdoc": {
    "kind": "dev",
    "methods": {},
    "version": 1
  },
  "userdoc": {
    "kind": "user",
    "methods": {},
    "version": 1
  }
}