{
  "contractName": "StorageHealthRecords",
  "abi": [
    {
      "anonymous": false,
      "inputs": [
        {
          "indexed": true,
          "internalType": "address",
          "name": "patient",
          "type": "address"
        },
        {
          "indexed": true,
          "internalType": "address",
          "name": "doctor",
          "type": "address"
        },
        {
          "indexed": false,
          "internalType": "bool",
          "name": "canCreate",
          "type": "bool"
        },
        {
          "indexed": false,
          "internalType": "bool",
          "name": "canRead",
          "type": "bool"
        },
        {
          "indexed": false,
          "internalType": "bool",
          "name": "canUpdate",
          "type": "bool"
        },
        {
          "indexed": false,
          "internalType": "bool",
          "name": "canDelete",
          "type": "bool"
        }
      ],
      "name": "AccessApproved",
      "type": "event"
    },
    {
      "anonymous": false,
      "inputs": [
        {
          "indexed": true,
          "internalType": "address",
          "name": "patient",
          "type": "address"
        },
        {
          "indexed": true,
          "internalType": "address",
          "name": "doctor",
          "type": "address"
        }
      ],
      "name": "AccessDenied",
      "type": "event"
    },
    {
      "anonymous": false,
      "inputs": [
        {
          "indexed": true,
          "internalType": "address",
          "name": "patient",
          "type": "address"
        },
        {
          "indexed": true,
          "internalType": "address",
          "name": "doctor",
          "type": "address"
        },
        {
          "indexed": false,
          "internalType": "bool",
          "name": "canCreate",
          "type": "bool"
        },
        {
          "indexed": false,
          "internalType": "bool",
          "name": "canRead",
          "type": "bool"
        },
        {
          "indexed": false,
          "internalType": "bool",
          "name": "canUpdate",
          "type": "bool"
        },
        {
          "indexed": false,
          "internalType": "bool",
          "name": "canDelete",
          "type": "bool"
        }
      ],
      "name": "AccessRequested",
      "type": "event"
    },
    {
      "anonymous": false,
      "inputs": [
        {
          "indexed": true,
          "internalType": "address",
          "name": "doctor",
          "type": "address"
        }
      ],
      "name": "DoctorRegistered",
      "type": "event"
    },
    {
      "anonymous": false,
      "inputs": [
        {
          "indexed": true,
          "internalType": "address",
          "name": "patient",
          "type": "address"
        },
        {
          "indexed": false,
          "internalType": "string",
          "name": "recordId",
          "type": "string"
        }
      ],
      "name": "HealthRecordCreated",
      "type": "event"
    },
    {
      "anonymous": false,
      "inputs": [
        {
          "indexed": true,
          "internalType": "address",
          "name": "patient",
          "type": "address"
        },
        {
          "indexed": false,
          "internalType": "string",
          "name": "recordId",
          "type": "string"
        }
      ],
      "name": "HealthRecordDeleted",
      "type": "event"
    },
    {
      "anonymous": false,
      "inputs": [
        {
          "indexed": true,
          "internalType": "address",
          "name": "patient",
          "type": "address"
        },
        {
          "indexed": false,
          "internalType": "string",
          "name": "recordId",
          "type": "string"
        }
      ],
      "name": "HealthRecordRevertDeleted",
      "type": "event"
    },
    {
      "anonymous": false,
      "inputs": [
        {
          "indexed": true,
          "internalType": "address",
          "name": "patient",
          "type": "address"
        },
        {
          "indexed": false,
          "internalType": "string",
          "name": "recordId",
          "type": "string"
        }
      ],
      "name": "HealthRecordUpdated",
      "type": "event"
    },
    {
      "anonymous": false,
      "inputs": [
        {
          "indexed": true,
          "internalType": "address",
          "name": "patient",
          "type": "address"
        }
      ],
      "name": "PatientRegistered",
      "type": "event"
    },
    {
      "anonymous": false,
      "inputs": [
        {
          "indexed": true,
          "internalType": "address",
          "name": "creator",
          "type": "address"
        },
        {
          "indexed": false,
          "internalType": "string",
          "name": "message",
          "type": "string"
        }
      ],
      "name": "SendTest",
      "type": "event"
    },
    {
      "inputs": [
        {
          "internalType": "address",
          "name": "senderAddress",
          "type": "address"
        },
        {
          "internalType": "string",
          "name": "name",
          "type": "string"
        },
        {
          "internalType": "string",
          "name": "birthDate",
          "type": "string"
        },
        {
          "internalType": "string",
          "name": "homeAddress",
          "type": "string"
        },
        {
          "internalType": "string",
          "name": "aesKey",
          "type": "string"
        },
        {
          "internalType": "string",
          "name": "passKey",
          "type": "string"
        },
        {
          "internalType": "string",
          "name": "role",
          "type": "string"
        }
      ],
      "name": "registerUser",
      "outputs": [],
      "stateMutability": "nonpayable",
      "type": "function"
    },
    {
      "inputs": [
        {
          "internalType": "address",
          "name": "addressUser",
          "type": "address"
        }
      ],
      "name": "checkIsUserRegistered",
      "outputs": [
        {
          "internalType": "bool",
          "name": "",
          "type": "bool"
        }
      ],
      "stateMutability": "view",
      "type": "function",
      "constant": true
    },
    {
      "inputs": [
        {
          "internalType": "address",
          "name": "userAddress",
          "type": "address"
        }
      ],
      "name": "getUser",
      "outputs": [
        {
          "components": [
            {
              "internalType": "string",
              "name": "name",
              "type": "string"
            },
            {
              "internalType": "string",
              "name": "birthDate",
              "type": "string"
            },
            {
              "internalType": "string",
              "name": "homeAddress",
              "type": "string"
            },
            {
              "internalType": "string",
              "name": "aesKey",
              "type": "string"
            },
            {
              "internalType": "string",
              "name": "passKey",
              "type": "string"
            },
            {
              "internalType": "string",
              "name": "role",
              "type": "string"
            },
            {
              "internalType": "address",
              "name": "ethAddress",
              "type": "address"
            }
          ],
          "internalType": "struct StorageHealthRecords.User",
          "name": "",
          "type": "tuple"
        }
      ],
      "stateMutability": "view",
      "type": "function",
      "constant": true
    },
    {
      "inputs": [
        {
          "internalType": "address",
          "name": "_patientAddress",
          "type": "address"
        }
      ],
      "name": "getPatient",
      "outputs": [
        {
          "internalType": "address",
          "name": "ethAddress",
          "type": "address"
        },
        {
          "internalType": "string",
          "name": "name",
          "type": "string"
        },
        {
          "internalType": "string",
          "name": "lastMedicalRecordCID",
          "type": "string"
        },
        {
          "internalType": "bool",
          "name": "registered",
          "type": "bool"
        }
      ],
      "stateMutability": "view",
      "type": "function",
      "constant": true
    },
    {
      "inputs": [],
      "name": "getAllRegisteredPatients",
      "outputs": [
        {
          "internalType": "address[]",
          "name": "",
          "type": "address[]"
        }
      ],
      "stateMutability": "view",
      "type": "function",
      "constant": true
    },
    {
      "inputs": [],
      "name": "getAllRegisteredDoctors",
      "outputs": [
        {
          "internalType": "address[]",
          "name": "",
          "type": "address[]"
        }
      ],
      "stateMutability": "view",
      "type": "function",
      "constant": true
    },
    {
      "inputs": [
        {
          "internalType": "address",
          "name": "patientAddress",
          "type": "address"
        },
        {
          "internalType": "address",
          "name": "senderAddress",
          "type": "address"
        }
      ],
      "name": "getPatientDetails",
      "outputs": [
        {
          "internalType": "string",
          "name": "name",
          "type": "string"
        },
        {
          "internalType": "string",
          "name": "birthDate",
          "type": "string"
        },
        {
          "internalType": "string",
          "name": "homeAddress",
          "type": "string"
        },
        {
          "internalType": "string",
          "name": "aesKey",
          "type": "string"
        },
        {
          "internalType": "string",
          "name": "role",
          "type": "string"
        },
        {
          "internalType": "address[]",
          "name": "doctorsApproved",
          "type": "address[]"
        },
        {
          "internalType": "address[]",
          "name": "doctorsPending",
          "type": "address[]"
        },
        {
          "components": [
            {
              "internalType": "string",
              "name": "id",
              "type": "string"
            },
            {
              "internalType": "address",
              "name": "creatorAddress",
              "type": "address"
            },
            {
              "internalType": "string",
              "name": "description",
              "type": "string"
            },
            {
              "internalType": "string",
              "name": "cid",
              "type": "string"
            },
            {
              "internalType": "string",
              "name": "recordType",
              "type": "string"
            },
            {
              "internalType": "string",
              "name": "createdAt",
              "type": "string"
            },
            {
              "internalType": "bool",
              "name": "isActive",
              "type": "bool"
            },
            {
              "internalType": "uint256",
              "name": "version",
              "type": "uint256"
            },
            {
              "internalType": "string",
              "name": "previousId",
              "type": "string"
            }
          ],
          "internalType": "struct StorageHealthRecords.HealthRecord[]",
          "name": "healthRecords",
          "type": "tuple[]"
        },
        {
          "components": [
            {
              "internalType": "string",
              "name": "id",
              "type": "string"
            },
            {
              "internalType": "address",
              "name": "creatorAddress",
              "type": "address"
            },
            {
              "internalType": "string",
              "name": "description",
              "type": "string"
            },
            {
              "internalType": "string",
              "name": "cid",
              "type": "string"
            },
            {
              "internalType": "string",
              "name": "recordType",
              "type": "string"
            },
            {
              "internalType": "string",
              "name": "createdAt",
              "type": "string"
            },
            {
              "internalType": "bool",
              "name": "isActive",
              "type": "bool"
            },
            {
              "internalType": "uint256",
              "name": "version",
              "type": "uint256"
            },
            {
              "internalType": "string",
              "name": "previousId",
              "type": "string"
            }
          ],
          "internalType": "struct StorageHealthRecords.HealthRecord[]",
          "name": "oldHealthRecords",
          "type": "tuple[]"
        }
      ],
      "stateMutability": "view",
      "type": "function",
      "constant": true
    },
    {
      "inputs": [
        {
          "internalType": "address",
          "name": "doctorAddress",
          "type": "address"
        }
      ],
      "name": "getDoctorDetails",
      "outputs": [
        {
          "internalType": "string",
          "name": "name",
          "type": "string"
        },
        {
          "internalType": "string",
          "name": "birthDate",
          "type": "string"
        },
        {
          "internalType": "string",
          "name": "homeAddress",
          "type": "string"
        },
        {
          "internalType": "string",
          "name": "aesKey",
          "type": "string"
        },
        {
          "internalType": "string",
          "name": "role",
          "type": "string"
        },
        {
          "internalType": "address[]",
          "name": "patientsApproved",
          "type": "address[]"
        },
        {
          "internalType": "address[]",
          "name": "patientsPending",
          "type": "address[]"
        }
      ],
      "stateMutability": "view",
      "type": "function",
      "constant": true
    },
    {
      "inputs": [
        {
          "internalType": "address",
          "name": "senderAddress",
          "type": "address"
        },
        {
          "internalType": "address",
          "name": "patientAddress",
          "type": "address"
        },
        {
          "internalType": "string",
          "name": "newRecordId",
          "type": "string"
        },
        {
          "internalType": "string",
          "name": "description",
          "type": "string"
        },
        {
          "internalType": "string",
          "name": "cid",
          "type": "string"
        },
        {
          "internalType": "string",
          "name": "recordType",
          "type": "string"
        },
        {
          "internalType": "string",
          "name": "createdAt",
          "type": "string"
        }
      ],
      "name": "createHealthRecord",
      "outputs": [],
      "stateMutability": "nonpayable",
      "type": "function"
    },
    {
      "inputs": [
        {
          "internalType": "address",
          "name": "senderAddress",
          "type": "address"
        },
        {
          "internalType": "address",
          "name": "patientAddress",
          "type": "address"
        },
        {
          "internalType": "string",
          "name": "recordId",
          "type": "string"
        }
      ],
      "name": "getHealthRecord",
      "outputs": [
        {
          "components": [
            {
              "internalType": "string",
              "name": "id",
              "type": "string"
            },
            {
              "internalType": "address",
              "name": "creatorAddress",
              "type": "address"
            },
            {
              "internalType": "string",
              "name": "description",
              "type": "string"
            },
            {
              "internalType": "string",
              "name": "cid",
              "type": "string"
            },
            {
              "internalType": "string",
              "name": "recordType",
              "type": "string"
            },
            {
              "internalType": "string",
              "name": "createdAt",
              "type": "string"
            },
            {
              "internalType": "bool",
              "name": "isActive",
              "type": "bool"
            },
            {
              "internalType": "uint256",
              "name": "version",
              "type": "uint256"
            },
            {
              "internalType": "string",
              "name": "previousId",
              "type": "string"
            }
          ],
          "internalType": "struct StorageHealthRecords.HealthRecord",
          "name": "",
          "type": "tuple"
        }
      ],
      "stateMutability": "view",
      "type": "function",
      "constant": true
    },
    {
      "inputs": [
        {
          "internalType": "address",
          "name": "senderAddress",
          "type": "address"
        },
        {
          "internalType": "address",
          "name": "patientAddress",
          "type": "address"
        }
      ],
      "name": "getHealthRecordsByAddress",
      "outputs": [
        {
          "components": [
            {
              "internalType": "string",
              "name": "id",
              "type": "string"
            },
            {
              "internalType": "address",
              "name": "creatorAddress",
              "type": "address"
            },
            {
              "internalType": "string",
              "name": "description",
              "type": "string"
            },
            {
              "internalType": "string",
              "name": "cid",
              "type": "string"
            },
            {
              "internalType": "string",
              "name": "recordType",
              "type": "string"
            },
            {
              "internalType": "string",
              "name": "createdAt",
              "type": "string"
            },
            {
              "internalType": "bool",
              "name": "isActive",
              "type": "bool"
            },
            {
              "internalType": "uint256",
              "name": "version",
              "type": "uint256"
            },
            {
              "internalType": "string",
              "name": "previousId",
              "type": "string"
            }
          ],
          "internalType": "struct StorageHealthRecords.HealthRecord[]",
          "name": "",
          "type": "tuple[]"
        }
      ],
      "stateMutability": "view",
      "type": "function",
      "constant": true
    },
    {
      "inputs": [
        {
          "internalType": "address",
          "name": "senderAddress",
          "type": "address"
        },
        {
          "internalType": "address",
          "name": "patientAddress",
          "type": "address"
        },
        {
          "internalType": "string",
          "name": "newRecordId",
          "type": "string"
        },
        {
          "internalType": "string",
          "name": "recordId",
          "type": "string"
        },
        {
          "internalType": "string",
          "name": "description",
          "type": "string"
        },
        {
          "internalType": "string",
          "name": "cid",
          "type": "string"
        },
        {
          "internalType": "string",
          "name": "recordType",
          "type": "string"
        },
        {
          "internalType": "string",
          "name": "createdAt",
          "type": "string"
        }
      ],
      "name": "updateHealthRecord",
      "outputs": [],
      "stateMutability": "nonpayable",
      "type": "function"
    },
    {
      "inputs": [
        {
          "internalType": "address",
          "name": "senderAddress",
          "type": "address"
        },
        {
          "internalType": "address",
          "name": "patientAddress",
          "type": "address"
        },
        {
          "internalType": "string",
          "name": "recordId",
          "type": "string"
        }
      ],
      "name": "deleteHealthRecord",
      "outputs": [],
      "stateMutability": "nonpayable",
      "type": "function"
    },
    {
      "inputs": [
        {
          "internalType": "address",
          "name": "senderAddress",
          "type": "address"
        },
        {
          "internalType": "address",
          "name": "patientAddress",
          "type": "address"
        },
        {
          "internalType": "string",
          "name": "recordId",
          "type": "string"
        }
      ],
      "name": "revertDeleteHealthRecord",
      "outputs": [],
      "stateMutability": "nonpayable",
      "type": "function"
    },
    {
      "inputs": [
        {
          "internalType": "address",
          "name": "senderAddress",
          "type": "address"
        },
        {
          "internalType": "address",
          "name": "doctorAddress",
          "type": "address"
        },
        {
          "internalType": "bool",
          "name": "canCreate",
          "type": "bool"
        },
        {
          "internalType": "bool",
          "name": "canRead",
          "type": "bool"
        },
        {
          "internalType": "bool",
          "name": "canUpdate",
          "type": "bool"
        },
        {
          "internalType": "bool",
          "name": "canDelete",
          "type": "bool"
        }
      ],
      "name": "permissionPatientGrantDoctor",
      "outputs": [],
      "stateMutability": "nonpayable",
      "type": "function"
    },
    {
      "inputs": [
        {
          "internalType": "address",
          "name": "senderAddress",
          "type": "address"
        },
        {
          "internalType": "address",
          "name": "doctorAddress",
          "type": "address"
        }
      ],
      "name": "permissionPatientRevokeDoctor",
      "outputs": [],
      "stateMutability": "nonpayable",
      "type": "function"
    },
    {
      "inputs": [
        {
          "internalType": "address",
          "name": "senderAddress",
          "type": "address"
        },
        {
          "internalType": "address",
          "name": "patientAddress",
          "type": "address"
        },
        {
          "internalType": "bool",
          "name": "canCreate",
          "type": "bool"
        },
        {
          "internalType": "bool",
          "name": "canRead",
          "type": "bool"
        },
        {
          "internalType": "bool",
          "name": "canUpdate",
          "type": "bool"
        },
        {
          "internalType": "bool",
          "name": "canDelete",
          "type": "bool"
        }
      ],
      "name": "requestAccessDoctor",
      "outputs": [],
      "stateMutability": "nonpayable",
      "type": "function"
    },
    {
      "inputs": [
        {
          "internalType": "address",
          "name": "senderAddress",
          "type": "address"
        },
        {
          "internalType": "address",
          "name": "doctorAddress",
          "type": "address"
        }
      ],
      "name": "requestAccessApproved",
      "outputs": [],
      "stateMutability": "nonpayable",
      "type": "function"
    },
    {
      "inputs": [
        {
          "internalType": "address",
          "name": "senderAddress",
          "type": "address"
        },
        {
          "internalType": "address",
          "name": "doctorAddress",
          "type": "address"
        }
      ],
      "name": "requestAccessDenied",
      "outputs": [],
      "stateMutability": "nonpayable",
      "type": "function"
    },
    {
      "inputs": [
        {
          "internalType": "address",
          "name": "patientAddress",
          "type": "address"
        }
      ],
      "name": "getPatientDoctors",
      "outputs": [
        {
          "components": [
            {
              "internalType": "address",
              "name": "userAddress",
              "type": "address"
            },
            {
              "internalType": "bool",
              "name": "canCreate",
              "type": "bool"
            },
            {
              "internalType": "bool",
              "name": "canRead",
              "type": "bool"
            },
            {
              "internalType": "bool",
              "name": "canUpdate",
              "type": "bool"
            },
            {
              "internalType": "bool",
              "name": "canDelete",
              "type": "bool"
            }
          ],
          "internalType": "struct StorageHealthRecords.AccessResponse[]",
          "name": "approved",
          "type": "tuple[]"
        },
        {
          "components": [
            {
              "internalType": "address",
              "name": "userAddress",
              "type": "address"
            },
            {
              "internalType": "bool",
              "name": "canCreate",
              "type": "bool"
            },
            {
              "internalType": "bool",
              "name": "canRead",
              "type": "bool"
            },
            {
              "internalType": "bool",
              "name": "canUpdate",
              "type": "bool"
            },
            {
              "internalType": "bool",
              "name": "canDelete",
              "type": "bool"
            }
          ],
          "internalType": "struct StorageHealthRecords.AccessResponse[]",
          "name": "pending",
          "type": "tuple[]"
        }
      ],
      "stateMutability": "view",
      "type": "function",
      "constant": true
    },
    {
      "inputs": [
        {
          "internalType": "address",
          "name": "doctorAddress",
          "type": "address"
        }
      ],
      "name": "getDoctorPatients",
      "outputs": [
        {
          "components": [
            {
              "internalType": "address",
              "name": "userAddress",
              "type": "address"
            },
            {
              "internalType": "bool",
              "name": "canCreate",
              "type": "bool"
            },
            {
              "internalType": "bool",
              "name": "canRead",
              "type": "bool"
            },
            {
              "internalType": "bool",
              "name": "canUpdate",
              "type": "bool"
            },
            {
              "internalType": "bool",
              "name": "canDelete",
              "type": "bool"
            }
          ],
          "internalType": "struct StorageHealthRecords.AccessResponse[]",
          "name": "approved",
          "type": "tuple[]"
        },
        {
          "components": [
            {
              "internalType": "address",
              "name": "userAddress",
              "type": "address"
            },
            {
              "internalType": "bool",
              "name": "canCreate",
              "type": "bool"
            },
            {
              "internalType": "bool",
              "name": "canRead",
              "type": "bool"
            },
            {
              "internalType": "bool",
              "name": "canUpdate",
              "type": "bool"
            },
            {
              "internalType": "bool",
              "name": "canDelete",
              "type": "bool"
            }
          ],
          "internalType": "struct StorageHealthRecords.AccessResponse[]",
          "name": "pending",
          "type": "tuple[]"
        }
      ],
      "stateMutability": "view",
      "type": "function",
      "constant": true
    },
    {
      "inputs": [
        {
          "internalType": "address",
          "name": "doctorAddress",
          "type": "address"
        },
        {
          "internalType": "address",
          "name": "patientAddress",
          "type": "address"
        }
      ],
      "name": "getDoctorPermission",
      "outputs": [
        {
          "components": [
            {
              "internalType": "address",
              "name": "userAddress",
              "type": "address"
            },
            {
              "internalType": "bool",
              "name": "canCreate",
              "type": "bool"
            },
            {
              "internalType": "bool",
              "name": "canRead",
              "type": "bool"
            },
            {
              "internalType": "bool",
              "name": "canUpdate",
              "type": "bool"
            },
            {
              "internalType": "bool",
              "name": "canDelete",
              "type": "bool"
            }
          ],
          "internalType": "struct StorageHealthRecords.AccessResponse",
          "name": "",
          "type": "tuple"
        }
      ],
      "stateMutability": "view",
      "type": "function",
      "constant": true
    },
    {
      "inputs": [
        {
          "internalType": "address",
          "name": "addr",
          "type": "address"
        }
      ],
      "name": "addressToString",
      "outputs": [
        {
          "internalType": "string",
          "name": "",
          "type": "string"
        }
      ],
      "stateMutability": "pure",
      "type": "function",
      "constant": true
    },
    {
      "inputs": [
        {
          "internalType": "string",
          "name": "message",
          "type": "string"
        }
      ],
      "name": "testSendTransaction",
      "outputs": [],
      "stateMutability": "nonpayable",
      "type": "function"
    }
  ],
  "bytecode": "0x608060405234801561001057600080fd5b50615ec980620000216000396000f3fe608060405234801561001057600080fd5b50600436106101585760003560e01c80639e515fb5116100c3578063c71e105c1161007c578063c71e105c1461034c578063ccfcdc6e1461035f578063df95b99514610372578063e4d93e4f14610385578063f567ac7f14610398578063f7d516d7146103ab57600080fd5b80639e515fb51461029d578063a5faca9e146102b0578063b5368e20146102d0578063ba508467146102f3578063bab90dbd14610306578063c40efcf51461032c57600080fd5b80635e3b30c8116101155780635e3b30c81461020f5780635e57966d14610222578063603b7e8a146102425780636f77926b146102555780638f7741ac146102755780639673ccd01461027d57600080fd5b80630e9a705a1461015d5780630ea12c1a1461018e5780630f5350df146101b1578063413f107a146101c657806352242f55146101db5780635af109a8146101fc575b600080fd5b61017061016b3660046151d5565b6103be565b604051610185999897969594939291906153d0565b60405180910390f35b6101a161019c366004615495565b61116e565b6040519015158152602001610185565b6101c46101bf36600461555a565b6111b3565b005b6101ce6113c9565b60405161018591906155b8565b6101ee6101e9366004615495565b61142b565b604051610185929190615643565b6101c461020a366004615681565b611567565b6101c461021d3660046151d5565b611662565b610235610230366004615495565b611840565b60405161018591906156f5565b6101c4610250366004615708565b611a44565b610268610263366004615495565b611c98565b60405161018591906157fb565b6101ce61210b565b61029061028b3660046151d5565b61216b565b60405161018591906158c8565b6101c46102ab3660046158db565b612612565b6102c36102be3660046151d5565b6129f4565b604051610185919061593e565b6102e36102de366004615495565b612ba4565b604051610185949392919061594c565b6101ee610301366004615495565b61307b565b610319610314366004615495565b6131a9565b6040516101859796959493929190615996565b61033f61033a36600461555a565b6136b0565b6040516101859190615a2d565b6101c461035a36600461555a565b613c94565b6101c461036d3660046151d5565b613e4c565b6101c4610380366004615681565b613f27565b6101c46103933660046151d5565b614127565b6101c46103a6366004615a40565b614275565b6101c46103b9366004615a7d565b6142b9565b6001600160a01b038216600090815260056020526040902054606090819081908190819081908190819081908b9060ff166104145760405162461bcd60e51b815260040161040b90615b95565b60405180910390fd5b8b6001600160a01b03168b6001600160a01b0316148061048257506001600160a01b038b1660009081526006602052604090205460ff16801561048257506001600160a01b038c81166000908152600760209081526040808320938f168352929052205462010000900460ff165b61049e5760405162461bcd60e51b815260040161040b90615bc5565b6001600160a01b038c16600090815260026020526040808220815160e081019092528054829082906104cf90615bf2565b80601f01602080910402602001604051908101604052809291908181526020018280546104fb90615bf2565b80156105485780601f1061051d57610100808354040283529160200191610548565b820191906000526020600020905b81548152906001019060200180831161052b57829003601f168201915b5050505050815260200160018201805461056190615bf2565b80601f016020809104026020016040519081016040528092919081815260200182805461058d90615bf2565b80156105da5780601f106105af576101008083540402835291602001916105da565b820191906000526020600020905b8154815290600101906020018083116105bd57829003601f168201915b505050505081526020016002820180546105f390615bf2565b80601f016020809104026020016040519081016040528092919081815260200182805461061f90615bf2565b801561066c5780601f106106415761010080835404028352916020019161066c565b820191906000526020600020905b81548152906001019060200180831161064f57829003601f168201915b5050505050815260200160038201805461068590615bf2565b80601f01602080910402602001604051908101604052809291908181526020018280546106b190615bf2565b80156106fe5780601f106106d3576101008083540402835291602001916106fe565b820191906000526020600020905b8154815290600101906020018083116106e157829003601f168201915b5050505050815260200160048201805461071790615bf2565b80601f016020809104026020016040519081016040528092919081815260200182805461074390615bf2565b80156107905780601f1061076557610100808354040283529160200191610790565b820191906000526020600020905b81548152906001019060200180831161077357829003601f168201915b505050505081526020016005820180546107a990615bf2565b80601f01602080910402602001604051908101604052809291908181526020018280546107d590615bf2565b80156108225780601f106107f757610100808354040283529160200191610822565b820191906000526020600020905b81548152906001019060200180831161080557829003601f168201915b5050509183525050600691909101546001600160a01b039081166020928301528f1660009081526003825260408082208151815460a09581028201860190935260808101838152959650929492939092849290918491908401828280156108b257602002820191906000526020600020905b81546001600160a01b03168152600190910190602001808311610894575b505050505081526020016001820180548060200260200160405190810160405280929190818152602001828054801561091457602002820191906000526020600020905b81546001600160a01b031681526001909101906020018083116108f6575b5050505050815260200160028201805480602002602001604051908101604052809291908181526020016000905b82821015610d1557838290600052602060002090600902016040518061012001604052908160008201805461097690615bf2565b80601f01602080910402602001604051908101604052809291908181526020018280546109a290615bf2565b80156109ef5780601f106109c4576101008083540402835291602001916109ef565b820191906000526020600020905b8154815290600101906020018083116109d257829003601f168201915b505050918352505060018201546001600160a01b03166020820152600282018054604090920191610a1f90615bf2565b80601f0160208091040260200160405190810160405280929190818152602001828054610a4b90615bf2565b8015610a985780601f10610a6d57610100808354040283529160200191610a98565b820191906000526020600020905b815481529060010190602001808311610a7b57829003601f168201915b50505050508152602001600382018054610ab190615bf2565b80601f0160208091040260200160405190810160405280929190818152602001828054610add90615bf2565b8015610b2a5780601f10610aff57610100808354040283529160200191610b2a565b820191906000526020600020905b815481529060010190602001808311610b0d57829003601f168201915b50505050508152602001600482018054610b4390615bf2565b80601f0160208091040260200160405190810160405280929190818152602001828054610b6f90615bf2565b8015610bbc5780601f10610b9157610100808354040283529160200191610bbc565b820191906000526020600020905b815481529060010190602001808311610b9f57829003601f168201915b50505050508152602001600582018054610bd590615bf2565b80601f0160208091040260200160405190810160405280929190818152602001828054610c0190615bf2565b8015610c4e5780601f10610c2357610100808354040283529160200191610c4e565b820191906000526020600020905b815481529060010190602001808311610c3157829003601f168201915b5050509183525050600682015460ff161515602082015260078201546040820152600882018054606090920191610c8490615bf2565b80601f0160208091040260200160405190810160405280929190818152602001828054610cb090615bf2565b8015610cfd5780601f10610cd257610100808354040283529160200191610cfd565b820191906000526020600020905b815481529060010190602001808311610ce057829003601f168201915b50505050508152505081526020019060010190610942565b50505050815260200160038201805480602002602001604051908101604052809291908181526020016000905b82821015611115578382906000526020600020906009020160405180610120016040529081600082018054610d7690615bf2565b80601f0160208091040260200160405190810160405280929190818152602001828054610da290615bf2565b8015610def5780601f10610dc457610100808354040283529160200191610def565b820191906000526020600020905b815481529060010190602001808311610dd257829003601f168201915b505050918352505060018201546001600160a01b03166020820152600282018054604090920191610e1f90615bf2565b80601f0160208091040260200160405190810160405280929190818152602001828054610e4b90615bf2565b8015610e985780601f10610e6d57610100808354040283529160200191610e98565b820191906000526020600020905b815481529060010190602001808311610e7b57829003601f168201915b50505050508152602001600382018054610eb190615bf2565b80601f0160208091040260200160405190810160405280929190818152602001828054610edd90615bf2565b8015610f2a5780601f10610eff57610100808354040283529160200191610f2a565b820191906000526020600020905b815481529060010190602001808311610f0d57829003601f168201915b50505050508152602001600482018054610f4390615bf2565b80601f0160208091040260200160405190810160405280929190818152602001828054610f6f90615bf2565b8015610fbc5780601f10610f9157610100808354040283529160200191610fbc565b820191906000526020600020905b815481529060010190602001808311610f9f57829003601f168201915b50505050508152602001600582018054610fd590615bf2565b80601f016020809104026020016040519081016040528092919081815260200182805461100190615bf2565b801561104e5780601f106110235761010080835404028352916020019161104e565b820191906000526020600020905b81548152906001019060200180831161103157829003601f168201915b5050509183525050600682015460ff16151560208201526007820154604082015260088201805460609092019161108490615bf2565b80601f01602080910402602001604051908101604052809291908181526020018280546110b090615bf2565b80156110fd5780601f106110d2576101008083540402835291602001916110fd565b820191906000526020600020905b8154815290600101906020018083116110e057829003601f168201915b50505050508152505081526020019060010190610d42565b5050505081525050905081600001518260200151836040015184606001518560a0015185600001518660200151876040015188606001519b509b509b509b509b509b509b509b509b505050509295985092959850929598565b6001600160a01b03811660009081526005602052604081205460ff16806111ad57506001600160a01b03821660009081526006602052604090205460ff165b92915050565b6001600160a01b038216600090815260056020526040902054829060ff166111ed5760405162461bcd60e51b815260040161040b90615b95565b826001600160a01b0316846001600160a01b0316148061125d57506001600160a01b03841660009081526006602052604090205460ff16801561125d57506001600160a01b03838116600090815260076020908152604080832093881683529290522054640100000000900460ff165b6112795760405162461bcd60e51b815260040161040b90615bc5565b6001600160a01b0383166000908152600360205260408120600201905b815481101561137a5783805190602001208282815481106112b9576112b9615c2c565b90600052602060002090600902016000016040516112d79190615c42565b6040518091039020036113685760008282815481106112f8576112f8615c2c565b906000526020600020906009020160060160006101000a81548160ff021916908315150217905550846001600160a01b03167fbca92ff773fe1b82af61f0293353889ec496a5ca64b356a380b41783aa69f9ae8560405161135991906156f5565b60405180910390a250506113c3565b8061137281615cce565b915050611296565b5060405162461bcd60e51b815260206004820152601760248201527f4865616c7468207265636f7264206e6f7420666f756e64000000000000000000604482015260640161040b565b50505050565b6060600080548060200260200160405190810160405280929190818152602001828054801561142157602002820191906000526020600020905b81546001600160a01b03168152600190910190602001808311611403575b5050505050905090565b6001600160a01b0381166000908152600560205260409020546060908190839060ff1661146a5760405162461bcd60e51b815260040161040b90615b95565b6001600160a01b03841660009081526003602090815260409182902080548351818402810184019094528084526114e293928301828280156114d557602002820191906000526020600020905b81546001600160a01b031681526001909101906020018083116114b7575b5050505050856001614a9e565b6001600160a01b038516600090815260036020908152604091829020600101805483518184028101840190945280845261155d939283018282801561155057602002820191906000526020600020905b81546001600160a01b03168152600190910190602001808311611532575b5050505050866000614a9e565b9250925050915091565b6001600160a01b038616600090815260056020526040902054869060ff166115a15760405162461bcd60e51b815260040161040b90615b95565b6001600160a01b038616600090815260066020526040902054869060ff166115db5760405162461bcd60e51b815260040161040b90615ce7565b6115eb8888888888886001614cc8565b866001600160a01b0316886001600160a01b03167fcc7f0cd5708e7c282b3938e7950d37b95821195d2d1a71a5897d6512f30c652488888888604051611650949392919093151584529115156020840152151560408301521515606082015260800190565b60405180910390a35050505050505050565b6001600160a01b038216600090815260056020526040902054829060ff1661169c5760405162461bcd60e51b815260040161040b90615b95565b6001600160a01b038216600090815260066020526040902054829060ff166116d65760405162461bcd60e51b815260040161040b90615ce7565b6001600160a01b038085166000908152600860209081526040808320938716835292815290829020825160a081018452905460ff80821615158084526101008304821615159484019490945262010000820481161515948301949094526301000000810484161515606083015264010000000090049092161515608083015261179c5760405162461bcd60e51b81526020600482015260186024820152771058d8d95cdcc81c995c5d595cdd081b9bdd08199bdd5b9960421b604482015260640161040b565b6117bc858583602001518460400151856060015186608001516001614cc8565b836001600160a01b0316856001600160a01b03167fcc7f0cd5708e7c282b3938e7950d37b95821195d2d1a71a5897d6512f30c65248360200151846040015185606001518660800151604051611831949392919093151584529115156020840152151560408301521515606082015260800190565b60405180910390a35050505050565b604051606082811b6bffffffffffffffffffffffff191660208301529060009060340160408051808303601f190181528282018252601083526f181899199a1a9b1b9c1cb0b131b232b360811b60208401528151602a80825260608201909352909350600091602082018180368337019050509050600360fc1b816000815181106118cd576118cd615c2c565b60200101906001600160f81b031916908160001a905350600f60fb1b816001815181106118fc576118fc615c2c565b60200101906001600160f81b031916908160001a90535060005b6014811015611a3b5782600485838151811061193457611934615c2c565b016020015182516001600160f81b031990911690911c60f81c90811061195c5761195c615c2c565b01602001516001600160f81b03191682611977836002615d16565b611982906002615d2d565b8151811061199257611992615c2c565b60200101906001600160f81b031916908160001a905350828482815181106119bc576119bc615c2c565b602091010151815160f89190911c600f169081106119dc576119dc615c2c565b01602001516001600160f81b031916826119f7836002615d16565b611a02906003615d2d565b81518110611a1257611a12615c2c565b60200101906001600160f81b031916908160001a90535080611a3381615cce565b915050611916565b50949350505050565b6001600160a01b038616600090815260056020526040902054869060ff16611a7e5760405162461bcd60e51b815260040161040b90615b95565b866001600160a01b0316886001600160a01b03161480611aeb57506001600160a01b03881660009081526006602052604090205460ff168015611aeb57506001600160a01b038781166000908152600760209081526040808320938c1683529290522054610100900460ff165b611b075760405162461bcd60e51b815260040161040b90615bc5565b6001600160a01b0380881660009081526003602090815260408083208151610120810183528b8152948d16858401528482018a9052606085018990526080850188905260a08501879052600160c0860181905260e08601819052825180850190935284835261010086019290925260020180549182018155835291208251600990920201908190611b989082615d8e565b5060208201516001820180546001600160a01b0319166001600160a01b0390921691909117905560408201516002820190611bd39082615d8e565b5060608201516003820190611be89082615d8e565b5060808201516004820190611bfd9082615d8e565b5060a08201516005820190611c129082615d8e565b5060c082015160068201805460ff191691151591909117905560e082015160078201556101008201516008820190611c4a9082615d8e565b505050866001600160a01b03167f5abd141eb3688cbf42777909029ca2ace43a63fb88e1477ba82fb4858861354587604051611c8691906156f5565b60405180910390a25050505050505050565b611ce16040518060e0016040528060608152602001606081526020016060815260200160608152602001606081526020016060815260200160006001600160a01b031681525090565b6001600160a01b03821660009081526005602052604090205460ff1680611d2057506001600160a01b03821660009081526006602052604090205460ff165b611d625760405162461bcd60e51b8152602060048201526013602482015272155cd95c881b9bdd081c9959da5cdd195c9959606a1b604482015260640161040b565b6001600160a01b03821660009081526002602052604090819020815160e08101909252805482908290611d9490615bf2565b80601f0160208091040260200160405190810160405280929190818152602001828054611dc090615bf2565b8015611e0d5780601f10611de257610100808354040283529160200191611e0d565b820191906000526020600020905b815481529060010190602001808311611df057829003601f168201915b50505050508152602001600182018054611e2690615bf2565b80601f0160208091040260200160405190810160405280929190818152602001828054611e5290615bf2565b8015611e9f5780601f10611e7457610100808354040283529160200191611e9f565b820191906000526020600020905b815481529060010190602001808311611e8257829003601f168201915b50505050508152602001600282018054611eb890615bf2565b80601f0160208091040260200160405190810160405280929190818152602001828054611ee490615bf2565b8015611f315780601f10611f0657610100808354040283529160200191611f31565b820191906000526020600020905b815481529060010190602001808311611f1457829003601f168201915b50505050508152602001600382018054611f4a90615bf2565b80601f0160208091040260200160405190810160405280929190818152602001828054611f7690615bf2565b8015611fc35780601f10611f9857610100808354040283529160200191611fc3565b820191906000526020600020905b815481529060010190602001808311611fa657829003601f168201915b50505050508152602001600482018054611fdc90615bf2565b80601f016020809104026020016040519081016040528092919081815260200182805461200890615bf2565b80156120555780601f1061202a57610100808354040283529160200191612055565b820191906000526020600020905b81548152906001019060200180831161203857829003601f168201915b5050505050815260200160058201805461206e90615bf2565b80601f016020809104026020016040519081016040528092919081815260200182805461209a90615bf2565b80156120e75780601f106120bc576101008083540402835291602001916120e7565b820191906000526020600020905b8154815290600101906020018083116120ca57829003601f168201915b5050509183525050600691909101546001600160a01b031660209091015292915050565b60606001805480602002602001604051908101604052809291908181526020018280548015611421576020028201919060005260206000209081546001600160a01b03168152600190910190602001808311611403575050505050905090565b6001600160a01b038116600090815260056020526040902054606090829060ff166121a85760405162461bcd60e51b815260040161040b90615b95565b6001600160a01b03841660009081526006602052604090205460ff16806121e05750826001600160a01b0316846001600160a01b0316145b6121fc5760405162461bcd60e51b815260040161040b90615bc5565b6001600160a01b038316600090815260036020908152604080832060020180548251818502810185019093528083529193909284015b8282101561260557838290600052602060002090600902016040518061012001604052908160008201805461226690615bf2565b80601f016020809104026020016040519081016040528092919081815260200182805461229290615bf2565b80156122df5780601f106122b4576101008083540402835291602001916122df565b820191906000526020600020905b8154815290600101906020018083116122c257829003601f168201915b505050918352505060018201546001600160a01b0316602082015260028201805460409092019161230f90615bf2565b80601f016020809104026020016040519081016040528092919081815260200182805461233b90615bf2565b80156123885780601f1061235d57610100808354040283529160200191612388565b820191906000526020600020905b81548152906001019060200180831161236b57829003601f168201915b505050505081526020016003820180546123a190615bf2565b80601f01602080910402602001604051908101604052809291908181526020018280546123cd90615bf2565b801561241a5780601f106123ef5761010080835404028352916020019161241a565b820191906000526020600020905b8154815290600101906020018083116123fd57829003601f168201915b5050505050815260200160048201805461243390615bf2565b80601f016020809104026020016040519081016040528092919081815260200182805461245f90615bf2565b80156124ac5780601f10612481576101008083540402835291602001916124ac565b820191906000526020600020905b81548152906001019060200180831161248f57829003601f168201915b505050505081526020016005820180546124c590615bf2565b80601f01602080910402602001604051908101604052809291908181526020018280546124f190615bf2565b801561253e5780601f106125135761010080835404028352916020019161253e565b820191906000526020600020905b81548152906001019060200180831161252157829003601f168201915b5050509183525050600682015460ff16151560208201526007820154604082015260088201805460609092019161257490615bf2565b80601f01602080910402602001604051908101604052809291908181526020018280546125a090615bf2565b80156125ed5780601f106125c2576101008083540402835291602001916125ed565b820191906000526020600020905b8154815290600101906020018083116125d057829003601f168201915b50505050508152505081526020019060010190612232565b5050505091505092915050565b6001600160a01b03871660009081526005602052604090205460ff1615801561265457506001600160a01b03871660009081526006602052604090205460ff16155b6126a05760405162461bcd60e51b815260206004820152601760248201527f5573657220616c72656164792072656769737465726564000000000000000000604482015260640161040b565b6040516614185d1a595b9d60ca1b602082015260270160405160208183030381529060405280519060200120816040516020016126dd9190615e4e565b60405160208183030381529060405280519060200120148061274e5750604051652237b1ba37b960d11b602082015260260160405160208183030381529060405280519060200120816040516020016127369190615e4e565b60405160208183030381529060405280519060200120145b6127895760405162461bcd60e51b815260206004820152600c60248201526b496e76616c696420726f6c6560a01b604482015260640161040b565b6040805160e0810182528781526020808201889052818301879052606082018690526080820185905260a082018490526001600160a01b038a1660c083018190526000908152600290915291909120815181906127e69082615d8e565b50602082015160018201906127fb9082615d8e565b50604082015160028201906128109082615d8e565b50606082015160038201906128259082615d8e565b506080820151600482019061283a9082615d8e565b5060a0820151600582019061284f9082615d8e565b5060c09190910151600690910180546001600160a01b0319166001600160a01b039092169190911790556040516614185d1a595b9d60ca1b602082015260270160405160208183030381529060405280519060200120816040516020016128b69190615e4e565b60405160208183030381529060405280519060200120036129615760008054600180820183557f290decd9548b62a8d60345a988386fc84ba6bc95484008f6362f93160ef3e56390910180546001600160a01b0319166001600160a01b038b1690811790915580835260056020526040808420805460ff1916909317909255905190917fc9fa2003fca4ce0dfc8cb0deae32266b715536df6685365b05b5be96ede8e49c91a26129eb565b6001805480820182557fb10e2d527612073b26eecdfd717e6a320cf44b4afac2b0732d9fcbe2b7fa0cf60180546001600160a01b0319166001600160a01b038a16908117909155600081815260066020526040808220805460ff1916909417909355915190917f2dc8105a7545248d0e354c4c6b02fb583071cc719fb4bef1ca74d72d475570bc91a25b50505050505050565b6040805160a0810182526000808252602080830182905282840182905260608301829052608083018290526001600160a01b0385168252600590529190912054829060ff16612a555760405162461bcd60e51b815260040161040b90615b95565b6001600160a01b038416600090815260066020526040902054849060ff16612a8f5760405162461bcd60e51b815260040161040b90615ce7565b6001600160a01b038085166000908152600760209081526040808320938916835292815290829020825160a081018452905460ff808216151580845261010083048216151594840194909452620100008204811615159483019490945263010000008104841615156060830152640100000000900490921615156080830152612b515760405162461bcd60e51b815260206004820152601460248201527314195c9b5a5cdcda5bdb881b9bdd08199bdd5b9960621b604482015260640161040b565b6040518060a00160405280876001600160a01b0316815260200182602001511515815260200182604001511515815260200182606001511515815260200182608001511515815250935050505092915050565b600060608060008060026000876001600160a01b03166001600160a01b031681526020019081526020016000206040518060e0016040529081600082018054612bec90615bf2565b80601f0160208091040260200160405190810160405280929190818152602001828054612c1890615bf2565b8015612c655780601f10612c3a57610100808354040283529160200191612c65565b820191906000526020600020905b815481529060010190602001808311612c4857829003601f168201915b50505050508152602001600182018054612c7e90615bf2565b80601f0160208091040260200160405190810160405280929190818152602001828054612caa90615bf2565b8015612cf75780601f10612ccc57610100808354040283529160200191612cf7565b820191906000526020600020905b815481529060010190602001808311612cda57829003601f168201915b50505050508152602001600282018054612d1090615bf2565b80601f0160208091040260200160405190810160405280929190818152602001828054612d3c90615bf2565b8015612d895780601f10612d5e57610100808354040283529160200191612d89565b820191906000526020600020905b815481529060010190602001808311612d6c57829003601f168201915b50505050508152602001600382018054612da290615bf2565b80601f0160208091040260200160405190810160405280929190818152602001828054612dce90615bf2565b8015612e1b5780601f10612df057610100808354040283529160200191612e1b565b820191906000526020600020905b815481529060010190602001808311612dfe57829003601f168201915b50505050508152602001600482018054612e3490615bf2565b80601f0160208091040260200160405190810160405280929190818152602001828054612e6090615bf2565b8015612ead5780601f10612e8257610100808354040283529160200191612ead565b820191906000526020600020905b815481529060010190602001808311612e9057829003601f168201915b50505050508152602001600582018054612ec690615bf2565b80601f0160208091040260200160405190810160405280929190818152602001828054612ef290615bf2565b8015612f3f5780601f10612f1457610100808354040283529160200191612f3f565b820191906000526020600020905b815481529060010190602001808311612f2257829003601f168201915b5050509183525050600691909101546001600160a01b039081166020928301528816600090815260038252604080822081519384019091529082526002810154929350911561304757600282018054612f9a90600190615e6a565b81548110612faa57612faa615c2c565b90600052602060002090600902016003018054612fc690615bf2565b80601f0160208091040260200160405190810160405280929190818152602001828054612ff290615bf2565b801561303f5780601f106130145761010080835404028352916020019161303f565b820191906000526020600020905b81548152906001019060200180831161302257829003601f168201915b505050505090505b60c083015192516001600160a01b038916600090815260056020526040902054939750955093505060ff1690509193509193565b6001600160a01b0381166000908152600660205260409020546060908190839060ff166130ba5760405162461bcd60e51b815260040161040b90615ce7565b6001600160a01b038416600090815260046020908152604091829020805483518184028101840190945280845261313093928301828280156114d5576020028201919060005260206000209081546001600160a01b031681526001909101906020018083116114b7575050505050856001614a9e565b6001600160a01b038516600090815260046020908152604091829020600101805483518184028101840190945280845261155d9392830182828015611550576020028201919060005260206000209081546001600160a01b03168152600190910190602001808311611532575050505050866000614a9e565b6001600160a01b038116600090815260066020526040902054606090819081908190819081908190889060ff166131f25760405162461bcd60e51b815260040161040b90615ce7565b6001600160a01b038916600090815260026020526040808220815160e0810190925280548290829061322390615bf2565b80601f016020809104026020016040519081016040528092919081815260200182805461324f90615bf2565b801561329c5780601f106132715761010080835404028352916020019161329c565b820191906000526020600020905b81548152906001019060200180831161327f57829003601f168201915b505050505081526020016001820180546132b590615bf2565b80601f01602080910402602001604051908101604052809291908181526020018280546132e190615bf2565b801561332e5780601f106133035761010080835404028352916020019161332e565b820191906000526020600020905b81548152906001019060200180831161331157829003601f168201915b5050505050815260200160028201805461334790615bf2565b80601f016020809104026020016040519081016040528092919081815260200182805461337390615bf2565b80156133c05780601f10613395576101008083540402835291602001916133c0565b820191906000526020600020905b8154815290600101906020018083116133a357829003601f168201915b505050505081526020016003820180546133d990615bf2565b80601f016020809104026020016040519081016040528092919081815260200182805461340590615bf2565b80156134525780601f1061342757610100808354040283529160200191613452565b820191906000526020600020905b81548152906001019060200180831161343557829003601f168201915b5050505050815260200160048201805461346b90615bf2565b80601f016020809104026020016040519081016040528092919081815260200182805461349790615bf2565b80156134e45780601f106134b9576101008083540402835291602001916134e4565b820191906000526020600020905b8154815290600101906020018083116134c757829003601f168201915b505050505081526020016005820180546134fd90615bf2565b80601f016020809104026020016040519081016040528092919081815260200182805461352990615bf2565b80156135765780601f1061354b57610100808354040283529160200191613576565b820191906000526020600020905b81548152906001019060200180831161355957829003601f168201915b5050509183525050600691909101546001600160a01b039081166020928301528c1660009081526004825260408082208151815460609581028201860184529281018381529596509294929390928492909184919084018282801561360457602002820191906000526020600020905b81546001600160a01b031681526001909101906020018083116135e6575b505050505081526020016001820180548060200260200160405190810160405280929190818152602001828054801561366657602002820191906000526020600020905b81546001600160a01b03168152600190910190602001808311613648575b505050505081525050905081600001518260200151836040015184606001518560a00151856000015186602001519950995099509950995099509950505050919395979092949650565b61370a6040518061012001604052806060815260200160006001600160a01b031681526020016060815260200160608152602001606081526020016060815260200160001515815260200160008152602001606081525090565b6001600160a01b038316600090815260056020526040902054839060ff166137445760405162461bcd60e51b815260040161040b90615b95565b6001600160a01b038416600090815260036020908152604080832060020180548251818502810185019093528083529192909190849084015b82821015613b505783829060005260206000209060090201604051806101200160405290816000820180546137b190615bf2565b80601f01602080910402602001604051908101604052809291908181526020018280546137dd90615bf2565b801561382a5780601f106137ff5761010080835404028352916020019161382a565b820191906000526020600020905b81548152906001019060200180831161380d57829003601f168201915b505050918352505060018201546001600160a01b0316602082015260028201805460409092019161385a90615bf2565b80601f016020809104026020016040519081016040528092919081815260200182805461388690615bf2565b80156138d35780601f106138a8576101008083540402835291602001916138d3565b820191906000526020600020905b8154815290600101906020018083116138b657829003601f168201915b505050505081526020016003820180546138ec90615bf2565b80601f016020809104026020016040519081016040528092919081815260200182805461391890615bf2565b80156139655780601f1061393a57610100808354040283529160200191613965565b820191906000526020600020905b81548152906001019060200180831161394857829003601f168201915b5050505050815260200160048201805461397e90615bf2565b80601f01602080910402602001604051908101604052809291908181526020018280546139aa90615bf2565b80156139f75780601f106139cc576101008083540402835291602001916139f7565b820191906000526020600020905b8154815290600101906020018083116139da57829003601f168201915b50505050508152602001600582018054613a1090615bf2565b80601f0160208091040260200160405190810160405280929190818152602001828054613a3c90615bf2565b8015613a895780601f10613a5e57610100808354040283529160200191613a89565b820191906000526020600020905b815481529060010190602001808311613a6c57829003601f168201915b5050509183525050600682015460ff161515602082015260078201546040820152600882018054606090920191613abf90615bf2565b80601f0160208091040260200160405190810160405280929190818152602001828054613aeb90615bf2565b8015613b385780601f10613b0d57610100808354040283529160200191613b38565b820191906000526020600020905b815481529060010190602001808311613b1b57829003601f168201915b5050505050815250508152602001906001019061377d565b50505050905060005b815181101561137a578480519060200120828281518110613b7c57613b7c615c2c565b6020026020010151600001518051906020012003613c7a57856001600160a01b0316876001600160a01b03161480613be25750818181518110613bc157613bc1615c2c565b6020026020010151602001516001600160a01b0316876001600160a01b0316145b80613c3b57506001600160a01b03871660009081526006602052604090205460ff168015613c3b57506001600160a01b038681166000908152600760209081526040808320938b168352929052205462010000900460ff165b613c575760405162461bcd60e51b815260040161040b90615bc5565b818181518110613c6957613c69615c2c565b602002602001015193505050613c8c565b80613c8481615cce565b915050613b59565b509392505050565b6001600160a01b038216600090815260056020526040902054829060ff16613cce5760405162461bcd60e51b815260040161040b90615b95565b826001600160a01b0316846001600160a01b03161480613d3e57506001600160a01b03841660009081526006602052604090205460ff168015613d3e57506001600160a01b03838116600090815260076020908152604080832093881683529290522054640100000000900460ff165b613d5a5760405162461bcd60e51b815260040161040b90615bc5565b6001600160a01b0383166000908152600360205260408120600201905b815481101561137a578380519060200120828281548110613d9a57613d9a615c2c565b9060005260206000209060090201600001604051613db89190615c42565b604051809103902003613e3a576001828281548110613dd957613dd9615c2c565b906000526020600020906009020160060160006101000a81548160ff021916908315150217905550846001600160a01b03167fceb0ad62277751977c5e246edbc4f5ac041d6591d4f463d1b4a2c5fdcdae6dde8560405161135991906156f5565b80613e4481615cce565b915050613d77565b6001600160a01b038216600090815260056020526040902054829060ff16613e865760405162461bcd60e51b815260040161040b90615b95565b6001600160a01b038216600090815260066020526040902054829060ff16613ec05760405162461bcd60e51b815260040161040b90615ce7565b613eca8484614da6565b60408051600080825260208201819052818301819052606082015290516001600160a01b0385811692908716917fcc7f0cd5708e7c282b3938e7950d37b95821195d2d1a71a5897d6512f30c65249181900360800190a350505050565b6001600160a01b038616600090815260066020526040902054869060ff16613f615760405162461bcd60e51b815260040161040b90615ce7565b6001600160a01b038616600090815260056020526040902054869060ff16613f9b5760405162461bcd60e51b815260040161040b90615b95565b6040518060a0016040528060011515815260200187151581526020018615158152602001851515815260200184151581525060086000896001600160a01b03166001600160a01b0316815260200190815260200160002060008a6001600160a01b03166001600160a01b0316815260200190815260200160002060008201518160000160006101000a81548160ff02191690831515021790555060208201518160000160016101000a81548160ff02191690831515021790555060408201518160000160026101000a81548160ff02191690831515021790555060608201518160000160036101000a81548160ff02191690831515021790555060808201518160000160046101000a81548160ff0219169083151502179055509050506140c28789614e10565b876001600160a01b0316876001600160a01b03167fa980ff82f0d9a377c89efbdcce54f6d39ff21bfa6493df48b93f603b1f7fc0dc88888888604051611650949392919093151584529115156020840152151560408301521515606082015260800190565b6001600160a01b038216600090815260056020526040902054829060ff166141615760405162461bcd60e51b815260040161040b90615b95565b6001600160a01b038216600090815260066020526040902054829060ff1661419b5760405162461bcd60e51b815260040161040b90615ce7565b6001600160a01b0380851660009081526008602090815260408083209387168352929052205460ff1661420b5760405162461bcd60e51b81526020600482015260186024820152771058d8d95cdcc81c995c5d595cdd081b9bdd08199bdd5b9960421b604482015260640161040b565b6142158484614ee8565b6001600160a01b03808516600081815260086020908152604080832094881680845294909152808220805464ffffffffff19169055517fc21bbf9d94f95c3d399c96e6e0a641c57c9d086081bf1ab101a242d646821f809190a350505050565b336001600160a01b03167fea444dd7122a2566183a7902fbb509c213d7483f822bb6b81bbf91381565c7e9826040516142ae91906156f5565b60405180910390a250565b6001600160a01b038716600090815260056020526040902054879060ff166142f35760405162461bcd60e51b815260040161040b90615b95565b876001600160a01b0316896001600160a01b0316148061436257506001600160a01b03891660009081526006602052604090205460ff16801561436257506001600160a01b038881166000908152600760209081526040808320938d16835292905220546301000000900460ff165b61437e5760405162461bcd60e51b815260040161040b90615bc5565b6001600160a01b0388166000908152600360205260408120905b600282015481101561137a5787805190602001208260020182815481106143c1576143c1615c2c565b90600052602060002090600902016000016040516143df9190615c42565b604051809103902003614a8157816003016040518061012001604052808a815260200184600201848154811061441757614417615c2c565b6000918252602091829020600160099092020101546001600160a01b0316825260028601805492909101918590811061445257614452615c2c565b9060005260206000209060090201600201805461446e90615bf2565b80601f016020809104026020016040519081016040528092919081815260200182805461449a90615bf2565b80156144e75780601f106144bc576101008083540402835291602001916144e7565b820191906000526020600020905b8154815290600101906020018083116144ca57829003601f168201915b5050505050815260200184600201848154811061450657614506615c2c565b9060005260206000209060090201600301805461452290615bf2565b80601f016020809104026020016040519081016040528092919081815260200182805461454e90615bf2565b801561459b5780601f106145705761010080835404028352916020019161459b565b820191906000526020600020905b81548152906001019060200180831161457e57829003601f168201915b505050505081526020018460020184815481106145ba576145ba615c2c565b906000526020600020906009020160040180546145d690615bf2565b80601f016020809104026020016040519081016040528092919081815260200182805461460290615bf2565b801561464f5780601f106146245761010080835404028352916020019161464f565b820191906000526020600020905b81548152906001019060200180831161463257829003601f168201915b5050505050815260200184600201848154811061466e5761466e615c2c565b9060005260206000209060090201600501805461468a90615bf2565b80601f01602080910402602001604051908101604052809291908181526020018280546146b690615bf2565b80156147035780601f106146d857610100808354040283529160200191614703565b820191906000526020600020905b8154815290600101906020018083116146e657829003601f168201915b5050505050815260200160001515815260200184600201848154811061472b5761472b615c2c565b906000526020600020906009020160070154815260200184600201848154811061475757614757615c2c565b9060005260206000209060090201600801805461477390615bf2565b80601f016020809104026020016040519081016040528092919081815260200182805461479f90615bf2565b80156147ec5780601f106147c1576101008083540402835291602001916147ec565b820191906000526020600020905b8154815290600101906020018083116147cf57829003601f168201915b505050919092525050815460018101835560009283526020909220815191926009020190819061481c9082615d8e565b5060208201516001820180546001600160a01b0319166001600160a01b03909216919091179055604082015160028201906148579082615d8e565b506060820151600382019061486c9082615d8e565b50608082015160048201906148819082615d8e565b5060a082015160058201906148969082615d8e565b5060c082015160068201805460ff191691151591909117905560e0820151600782015561010082015160088201906148ce9082615d8e565b5050506040518061012001604052808a81526020018c6001600160a01b0316815260200188815260200187815260200186815260200185815260200160011515815260200183600201838154811061492857614928615c2c565b90600052602060002090600902016007015460016149469190615d2d565b81526020018981525082600201828154811061496457614964615c2c565b6000918252602090912082516009909202019081906149839082615d8e565b5060208201516001820180546001600160a01b0319166001600160a01b03909216919091179055604082015160028201906149be9082615d8e565b50606082015160038201906149d39082615d8e565b50608082015160048201906149e89082615d8e565b5060a082015160058201906149fd9082615d8e565b5060c082015160068201805460ff191691151591909117905560e082015160078201556101008201516008820190614a359082615d8e565b50905050896001600160a01b03167f496728c3966d39323f4b0f6f4a7a5e1f1cbbc87338b4a1d5942049e331ae281789604051614a7291906156f5565b60405180910390a25050614a93565b80614a8b81615cce565b915050614398565b505050505050505050565b60606000845167ffffffffffffffff811115614abc57614abc6154b7565b604051908082528060200260200182016040528015614b1557816020015b6040805160a081018252600080825260208083018290529282018190526060820181905260808201528252600019909201910181614ada5790505b50905060005b8551811015611a3b57600084614b87576001600160a01b03861660009081526008602052604081208851909190899085908110614b5a57614b5a615c2c565b60200260200101516001600160a01b03166001600160a01b03168152602001908152602001600020614bdf565b6001600160a01b03861660009081526007602052604081208851909190899085908110614bb657614bb6615c2c565b60200260200101516001600160a01b03166001600160a01b031681526020019081526020016000205b6040805160a08082018352925460ff8082161515835261010082048116151560208401526201000082048116151583850152630100000082048116151560608401526401000000009091041615156080820152815192830190915288519092508190899085908110614c5357614c53615c2c565b60200260200101516001600160a01b0316815260200182602001511515815260200182604001511515815260200182606001511515815260200182608001511515815250838381518110614ca957614ca9615c2c565b6020026020010181905250508080614cc090615cce565b915050614b1b565b6040805160a08101825260018152861515602080830191825287151583850190815287151560608501908152871515608086019081526001600160a01b038e8116600090815260078652888120918f16815294529590922093518454935191519251955161ffff1990941690151561ff00191617610100911515919091021763ffff00001916620100009115159190910263ff0000001916176301000000931515939093029290921764ff000000001916640100000000921515929092029190911790558015614d9c57614d9c8787614f32565b6129eb8787614ee8565b6001600160a01b038083166000818152600760209081526040808320948616808452948252808320805464ffffffffff19908116909155938352600882528083209483529390529190912080549091169055614e028282614ffe565b614e0c8282614ee8565b5050565b6001600160a01b0382166000908152600360205260409020614e359060010182615042565b614e7b576001600160a01b0382811660009081526003602090815260408220600190810180549182018155835291200180546001600160a01b0319169183169190911790555b6001600160a01b0381166000908152600460205260409020614ea09060010183615042565b614e0c576001600160a01b0390811660009081526004602090815260408220600190810180549182018155835291200180546001600160a01b03191692909116919091179055565b6001600160a01b0382166000908152600360205260409020614f0d90600101826150ab565b6001600160a01b0381166000908152600460205260409020614e0c90600101836150ab565b6001600160a01b0382166000908152600360205260409020614f549082615042565b614f97576001600160a01b0382811660009081526003602090815260408220805460018101825590835291200180546001600160a01b0319169183169190911790555b6001600160a01b0381166000908152600460205260409020614fb99083615042565b614e0c576001600160a01b0390811660009081526004602090815260408220805460018101825590835291200180546001600160a01b03191692909116919091179055565b6001600160a01b038216600090815260036020526040902061502090826150ab565b6001600160a01b0381166000908152600460205260409020614e0c90836150ab565b6000805b83548110156150a157826001600160a01b031684828154811061506b5761506b615c2c565b6000918252602090912001546001600160a01b03160361508f5760019150506111ad565b8061509981615cce565b915050615046565b5060009392505050565b60005b82548110156151b457816001600160a01b03168382815481106150d3576150d3615c2c565b6000918252602090912001546001600160a01b0316036151a257825483906150fd90600190615e6a565b8154811061510d5761510d615c2c565b9060005260206000200160009054906101000a90046001600160a01b031683828154811061513d5761513d615c2c565b9060005260206000200160006101000a8154816001600160a01b0302191690836001600160a01b031602179055508280548061517b5761517b615e7d565b600082815260209020810160001990810180546001600160a01b0319169055019055505050565b806151ac81615cce565b9150506150ae565b505050565b80356001600160a01b03811681146151d057600080fd5b919050565b600080604083850312156151e857600080fd5b6151f1836151b9565b91506151ff602084016151b9565b90509250929050565b60005b8381101561522357818101518382015260200161520b565b50506000910152565b60008151808452615244816020860160208601615208565b601f01601f19169290920160200192915050565b600081518084526020808501945080840160005b838110156152915781516001600160a01b03168752958201959082019060010161526c565b509495945050505050565b600061012082518185526152b28286018261522c565b91505060208301516152cf60208601826001600160a01b03169052565b50604083015184820360408601526152e7828261522c565b91505060608301518482036060860152615301828261522c565b9150506080830151848203608086015261531b828261522c565b91505060a083015184820360a0860152615335828261522c565b91505060c083015161534b60c086018215159052565b5060e083015160e0850152610100808401518583038287015261536e838261522c565b9695505050505050565b600082825180855260208086019550808260051b84010181860160005b848110156153c357601f198684030189526153b183835161529c565b98840198925090830190600101615395565b5090979650505050505050565b60006101208083526153e48184018d61522c565b905082810360208401526153f8818c61522c565b9050828103604084015261540c818b61522c565b90508281036060840152615420818a61522c565b90508281036080840152615434818961522c565b905082810360a08401526154488188615258565b905082810360c084015261545c8187615258565b905082810360e08401526154708186615378565b90508281036101008401526154858185615378565b9c9b505050505050505050505050565b6000602082840312156154a757600080fd5b6154b0826151b9565b9392505050565b634e487b7160e01b600052604160045260246000fd5b600082601f8301126154de57600080fd5b813567ffffffffffffffff808211156154f9576154f96154b7565b604051601f8301601f19908116603f01168101908282118183101715615521576155216154b7565b8160405283815286602085880101111561553a57600080fd5b836020870160208301376000602085830101528094505050505092915050565b60008060006060848603121561556f57600080fd5b615578846151b9565b9250615586602085016151b9565b9150604084013567ffffffffffffffff8111156155a257600080fd5b6155ae868287016154cd565b9150509250925092565b6020815260006154b06020830184615258565b80516001600160a01b031682526020808201511515908301526040808201511515908301526060808201511515908301526080908101511515910152565b600081518084526020808501945080840160005b83811015615291576156308783516155cb565b60a096909601959082019060010161561d565b6040815260006156566040830185615609565b82810360208401526156688185615609565b95945050505050565b803580151581146151d057600080fd5b60008060008060008060c0878903121561569a57600080fd5b6156a3876151b9565b95506156b1602088016151b9565b94506156bf60408801615671565b93506156cd60608801615671565b92506156db60808801615671565b91506156e960a08801615671565b90509295509295509295565b6020815260006154b0602083018461522c565b600080600080600080600060e0888a03121561572357600080fd5b61572c886151b9565b965061573a602089016151b9565b9550604088013567ffffffffffffffff8082111561575757600080fd5b6157638b838c016154cd565b965060608a013591508082111561577957600080fd5b6157858b838c016154cd565b955060808a013591508082111561579b57600080fd5b6157a78b838c016154cd565b945060a08a01359150808211156157bd57600080fd5b6157c98b838c016154cd565b935060c08a01359150808211156157df57600080fd5b506157ec8a828b016154cd565b91505092959891949750929550565b602081526000825160e0602084015261581861010084018261522c565b90506020840151601f1980858403016040860152615836838361522c565b92506040860151915080858403016060860152615853838361522c565b92506060860151915080858403016080860152615870838361522c565b925060808601519150808584030160a086015261588d838361522c565b925060a08601519150808584030160c0860152506158ab828261522c565b91505060c0840151613c8c60e08501826001600160a01b03169052565b6020815260006154b06020830184615378565b600080600080600080600060e0888a0312156158f657600080fd5b6158ff886151b9565b9650602088013567ffffffffffffffff8082111561591c57600080fd5b6159288b838c016154cd565b975060408a013591508082111561575757600080fd5b60a081016111ad82846155cb565b6001600160a01b03851681526080602082018190526000906159709083018661522c565b8281036040840152615982818661522c565b915050821515606083015295945050505050565b60e0815260006159a960e083018a61522c565b82810360208401526159bb818a61522c565b905082810360408401526159cf818961522c565b905082810360608401526159e3818861522c565b905082810360808401526159f7818761522c565b905082810360a0840152615a0b8186615258565b905082810360c0840152615a1f8185615258565b9a9950505050505050505050565b6020815260006154b0602083018461529c565b600060208284031215615a5257600080fd5b813567ffffffffffffffff811115615a6957600080fd5b615a75848285016154cd565b949350505050565b600080600080600080600080610100898b031215615a9a57600080fd5b615aa3896151b9565b9750615ab160208a016151b9565b9650604089013567ffffffffffffffff80821115615ace57600080fd5b615ada8c838d016154cd565b975060608b0135915080821115615af057600080fd5b615afc8c838d016154cd565b965060808b0135915080821115615b1257600080fd5b615b1e8c838d016154cd565b955060a08b0135915080821115615b3457600080fd5b615b408c838d016154cd565b945060c08b0135915080821115615b5657600080fd5b615b628c838d016154cd565b935060e08b0135915080821115615b7857600080fd5b50615b858b828c016154cd565b9150509295985092959890939650565b60208082526016908201527514185d1a595b9d081b9bdd081c9959da5cdd195c995960521b604082015260600190565b602080825260139082015272556e617574686f72697a65642061636365737360681b604082015260600190565b600181811c90821680615c0657607f821691505b602082108103615c2657634e487b7160e01b600052602260045260246000fd5b50919050565b634e487b7160e01b600052603260045260246000fd5b6000808354615c5081615bf2565b60018281168015615c685760018114615c7d57615cac565b60ff1984168752821515830287019450615cac565b8760005260208060002060005b85811015615ca35781548a820152908401908201615c8a565b50505082870194505b50929695505050505050565b634e487b7160e01b600052601160045260246000fd5b600060018201615ce057615ce0615cb8565b5060010190565b602080825260159082015274111bd8dd1bdc881b9bdd081c9959da5cdd195c9959605a1b604082015260600190565b80820281158282048414176111ad576111ad615cb8565b808201808211156111ad576111ad615cb8565b601f8211156151b457600081815260208120601f850160051c81016020861015615d675750805b601f850160051c820191505b81811015615d8657828155600101615d73565b505050505050565b815167ffffffffffffffff811115615da857615da86154b7565b615dbc81615db68454615bf2565b84615d40565b602080601f831160018114615df15760008415615dd95750858301515b600019600386901b1c1916600185901b178555615d86565b600085815260208120601f198616915b82811015615e2057888601518255948401946001909101908401615e01565b5085821015615e3e5787850151600019600388901b60f8161c191681555b5050505050600190811b01905550565b60008251615e60818460208701615208565b9190910192915050565b818103818111156111ad576111ad615cb8565b634e487b7160e01b600052603160045260246000fdfea264697066735822122084178a56e058af01e0189b5bd6f7a701675b4dcd21abc3c71280f2270eefd96764736f6c63430008130033",
  "immutableReferences": {},
  "source": "// SPDX-License-Identifier: MIT\r\npragma solidity ^0.8.19;\r\n\r\ncontract StorageHealthRecords {\r\n    struct HealthRecord {\r\n        string id;// ID unik rekam medis\r\n        address creatorAddress;// Alamat pembuat (dokter/pasien)\r\n        string description;// Deskripsi rekam medis\r\n        string cid;// Hash IPFS dari file rekam medis\r\n        string recordType;// Jenis rekam medis\r\n        string createdAt;// Timestamp pembuatan\r\n        bool isActive;// Status aktif/hapus\r\n        uint version;// Versi rekam (untuk tracking update)\r\n        string previousId;// ID rekam sebelumnya (jika di-update)\r\n    }\r\n\r\n    struct User {\r\n        string name;// Nama lengkap\r\n        string birthDate; // Tanggal lahir\r\n        string homeAddress;// Alamat fisik\r\n        string aesKey;// Kunci enkripsi untuk data sensitif\r\n        string passKey;// Kata sandi tambahan\r\n        string role;// \"Patient\" atau \"Doctor\"\r\n        address ethAddress;// Alamat Ethereum\r\n    }\r\n\r\n//Data spesifik peran\r\n    struct Patient {\r\n        address[] doctors;//Dokter yang diizinkan mengakses\r\n        address[] doctorsPending;// Dokter yang menunggu persetujuan\r\n        HealthRecord[] healthRecords;// Rekam medis aktif\r\n        HealthRecord[] oldHealthRecords;// Rekam medis arsip (versi lama)\r\n    } \r\n\r\n    struct Doctor {\r\n        address[] patients;// Pasien yang diizinkan diakses\r\n        address[] patientsPending;// Pasien menunggu persetujuan\r\n    }\r\n\r\n//Manajemen izin akses\r\n    struct Access {\r\n        bool isRequested;// Status permintaan akses\r\n        bool canCreate;// Izin membuat rekam medis\r\n        bool canRead;// Izin membaca rekam\r\n        bool canUpdate;// Izin memperbarui rekam\r\n        bool canDelete;// Izin menghapus rekam\r\n    }\r\n\r\n    struct AccessResponse {\r\n        address userAddress;\r\n        bool canCreate;\r\n        bool canRead;\r\n        bool canUpdate;\r\n        bool canDelete;\r\n    }\r\n\r\n    address[] private registeredPatients;\r\n    address[] private registeredDoctors;\r\n\r\n//menyimpan data rekam medis, pengguna, dan izin akses berdasarkan alamat Ethereum \r\n    mapping(address => User) private users;\r\n    mapping(address => Patient) private patients;\r\n    mapping(address => Doctor) private doctors;\r\n    mapping(address => bool) private isPatientRegistered; \r\n    mapping(address => bool) private isDoctorRegistered;\r\n    mapping(address => mapping(address => Access)) private doctorPermissions;\r\n    mapping(address => mapping(address => Access)) private doctorRequestAccess;\r\n    \r\n    \r\n    // Events\r\n    //mencatat kejadian (log) ke dalam blockchain log system\r\n    //Memudahkan tracking perubahan di frontend atau sistem eksternal\r\n    //Event dalam Solidity adalah mekanisme notifikasi yang memungkinkan \r\n    //smart contract mengirim sinyal ke aplikasi eksternal (seperti frontend atau backend) ketika suatu aksi tertentu terjadi di blockchain.\r\n    event PatientRegistered(address indexed patient); //Log ini dicatat saat seorang pasien berhasil mendaftar\r\n    event DoctorRegistered(address indexed doctor);\r\n    event AccessRequested(address indexed patient, address indexed doctor, bool canCreate, bool canRead, bool canUpdate, bool canDelete);\r\n    event AccessApproved(address indexed patient, address indexed doctor, bool canCreate, bool canRead, bool canUpdate, bool canDelete);\r\n    event AccessDenied(address indexed patient, address indexed doctor);\r\n    event HealthRecordCreated(address indexed patient, string recordId);\r\n    event HealthRecordUpdated(address indexed patient, string recordId);\r\n    event HealthRecordDeleted(address indexed patient, string recordId);\r\n    event HealthRecordRevertDeleted(address indexed patient, string recordId);\r\n    event SendTest(address indexed creator, string message);\r\n\r\n    // Modifiers\r\n    modifier onlyRegisteredPatient(address patient) {\r\n        require(isPatientRegistered[patient], \"Patient not registered\");\r\n        _;\r\n    }\r\n\r\n    modifier onlyRegisteredDoctor(address doctor) {\r\n        require(isDoctorRegistered[doctor], \"Doctor not registered\");\r\n        _;\r\n    }\r\n\r\n    modifier onlyPatientOrDoctorWithAccess(address patient, address caller, bool requireCreate, bool requireRead, bool requireUpdate, bool requireDelete) {\r\n        require(\r\n            caller == patient || \r\n            (isDoctorRegistered[caller] && \r\n            (!requireCreate || doctorPermissions[patient][caller].canCreate) &&\r\n            (!requireRead || doctorPermissions[patient][caller].canRead) &&\r\n            (!requireUpdate || doctorPermissions[patient][caller].canUpdate) &&\r\n            (!requireDelete || doctorPermissions[patient][caller].canDelete)),\r\n            \"Unauthorized access\"\r\n        );\r\n        _;\r\n    }\r\n\r\n    //Registrasi Pengguna\r\n    function registerUser(\r\n        address senderAddress,\r\n        string memory name, \r\n        string memory birthDate, \r\n        string memory homeAddress,\r\n        string memory aesKey, \r\n        string memory passKey,\r\n        string memory role\r\n    ) external {\r\n        //Menghasilkan nilai hash tetap (generate encrypt key)\r\n        require(!isPatientRegistered[senderAddress] && !isDoctorRegistered[senderAddress], \"User already registered\");\r\n        require(keccak256(abi.encodePacked(role)) == keccak256(abi.encodePacked(\"Patient\")) || \r\n               keccak256(abi.encodePacked(role)) == keccak256(abi.encodePacked(\"Doctor\")), \r\n               \"Invalid role\");\r\n\r\n        users[senderAddress] = User({\r\n            name: name,\r\n            birthDate: birthDate,\r\n            homeAddress: homeAddress,\r\n            aesKey: aesKey,\r\n            passKey: passKey,\r\n            role: role,\r\n            ethAddress: senderAddress\r\n        });\r\n\r\n        if (keccak256(abi.encodePacked(role)) == keccak256(abi.encodePacked(\"Patient\"))) {\r\n            registeredPatients.push(senderAddress);\r\n            isPatientRegistered[senderAddress] = true;\r\n            emit PatientRegistered(senderAddress);\r\n        } else {\r\n            registeredDoctors.push(senderAddress);\r\n            isDoctorRegistered[senderAddress] = true;\r\n            emit DoctorRegistered(senderAddress);\r\n        }\r\n    }\r\n\r\n    // View Functions\r\n    function checkIsUserRegistered(address addressUser) external view returns (bool) {\r\n        return isPatientRegistered[addressUser] || isDoctorRegistered[addressUser];\r\n    }\r\n\r\n    function getUser(address userAddress) external view returns (User memory) {\r\n        require(isPatientRegistered[userAddress] || isDoctorRegistered[userAddress], \"User not registered\");\r\n        return users[userAddress];\r\n    }\r\n// Update fungsi getPatient di dalam StorageHealthRecords.sol\r\n    function getPatient(address _patientAddress) public view returns (\r\n        address ethAddress,\r\n        string memory name,\r\n        string memory lastMedicalRecordCID,\r\n        bool registered\r\n    ) {\r\n        // 1. Ambil data dasar dari mapping users\r\n        User memory u = users[_patientAddress];\r\n        \r\n        // 2. Ambil data rekam medis dari struct Patient\r\n        Patient storage p = patients[_patientAddress];\r\n        \r\n        // 3. Logika mengambil CID terakhir (jika ada rekam medis)\r\n        string memory lastCID = \"\";\r\n        if (p.healthRecords.length > 0) {\r\n            // Mengambil CID dari rekam medis paling baru (index terakhir)\r\n            lastCID = p.healthRecords[p.healthRecords.length - 1].cid;\r\n        }\r\n        \r\n        return (\r\n            u.ethAddress, \r\n            u.name, \r\n            lastCID, \r\n            isPatientRegistered[_patientAddress]\r\n        );\r\n    }\r\n    function getAllRegisteredPatients() external view returns (address[] memory) {\r\n        return registeredPatients;\r\n    }\r\n\r\n    function getAllRegisteredDoctors() external view returns (address[] memory) {\r\n        return registeredDoctors;\r\n    }\r\n\r\n    // Patient Details\r\n    function getPatientDetails(address patientAddress, address senderAddress) \r\n        external \r\n        view \r\n        onlyRegisteredPatient(patientAddress)\r\n        returns (\r\n            string memory name, \r\n            string memory birthDate, \r\n            string memory homeAddress, \r\n            string memory aesKey,\r\n            string memory role,\r\n            address[] memory doctorsApproved, \r\n            address[] memory doctorsPending, \r\n            HealthRecord[] memory healthRecords,\r\n            HealthRecord[] memory oldHealthRecords\r\n        ) \r\n    {\r\n        require(\r\n            senderAddress == patientAddress || \r\n            (isDoctorRegistered[senderAddress] && doctorPermissions[patientAddress][senderAddress].canRead),\r\n            \"Unauthorized access\"\r\n        );\r\n        \r\n        User memory user = users[patientAddress];\r\n        Patient memory patient = patients[patientAddress];\r\n\r\n        return ( \r\n            user.name, \r\n            user.birthDate, \r\n            user.homeAddress, \r\n            user.aesKey,\r\n            user.role, \r\n            patient.doctors, \r\n            patient.doctorsPending, \r\n            patient.healthRecords,\r\n            patient.oldHealthRecords\r\n        );\r\n    }\r\n\r\n    // Doctor Details\r\n    function getDoctorDetails(address doctorAddress) \r\n        external \r\n        view \r\n        onlyRegisteredDoctor(doctorAddress)\r\n        returns (\r\n            string memory name, \r\n            string memory birthDate, \r\n            string memory homeAddress, \r\n            string memory aesKey,\r\n            string memory role,\r\n            address[] memory patientsApproved,\r\n            address[] memory patientsPending\r\n        ) \r\n    {\r\n        User memory user = users[doctorAddress];\r\n        Doctor memory doctor = doctors[doctorAddress];\r\n\r\n        return (\r\n            user.name, \r\n            user.birthDate, \r\n            user.homeAddress, \r\n            user.aesKey,\r\n            user.role,\r\n            doctor.patients,\r\n            doctor.patientsPending\r\n        );\r\n    }\r\n\r\n    // Health Record CRUD Operations\r\n    function createHealthRecord(\r\n        address senderAddress,\r\n        address patientAddress,\r\n        string memory newRecordId,\r\n        string memory description,\r\n        string memory cid,\r\n        string memory recordType,\r\n        string memory createdAt\r\n    ) external onlyRegisteredPatient(patientAddress) {\r\n        require(\r\n            senderAddress == patientAddress || \r\n            (isDoctorRegistered[senderAddress] && doctorPermissions[patientAddress][senderAddress].canCreate), \r\n            \"Unauthorized access\"\r\n        );\r\n\r\n        patients[patientAddress].healthRecords.push(HealthRecord({\r\n            id: newRecordId,\r\n            description: description,\r\n            cid: cid,\r\n            creatorAddress: senderAddress,\r\n            recordType: recordType,\r\n            createdAt: createdAt,\r\n            isActive: true,\r\n            version: 1,\r\n            previousId: \"\"\r\n        }));\r\n\r\n        emit HealthRecordCreated(patientAddress, newRecordId);\r\n    }\r\n\r\n    function getHealthRecord(\r\n        address senderAddress,\r\n        address patientAddress, \r\n        string memory recordId\r\n    ) external view onlyRegisteredPatient(patientAddress) returns (HealthRecord memory) {\r\n        HealthRecord[] memory records = patients[patientAddress].healthRecords;\r\n        for (uint i = 0; i < records.length; i++) {\r\n            if (keccak256(bytes(records[i].id)) == keccak256(bytes(recordId))) {\r\n                require(\r\n                    senderAddress == patientAddress || \r\n                    senderAddress == records[i].creatorAddress || \r\n                    (isDoctorRegistered[senderAddress] && doctorPermissions[patientAddress][senderAddress].canRead),\r\n                    \"Unauthorized access\"\r\n                );\r\n                return records[i];\r\n            }\r\n        }\r\n        revert(\"Health record not found\");\r\n    }\r\n\r\n    function getHealthRecordsByAddress(address senderAddress, address patientAddress) \r\n        external \r\n        view \r\n        onlyRegisteredPatient(patientAddress) \r\n        returns (HealthRecord[] memory) \r\n    {\r\n        require(isDoctorRegistered[senderAddress] || senderAddress == patientAddress, \"Unauthorized access\");\r\n        return patients[patientAddress].healthRecords;\r\n    }\r\n\r\n    function updateHealthRecord(\r\n        address senderAddress,\r\n        address patientAddress, \r\n        string memory newRecordId,\r\n        string memory recordId, \r\n        string memory description, \r\n        string memory cid,\r\n        string memory recordType,\r\n        string memory createdAt\r\n    ) external onlyRegisteredPatient(patientAddress) {\r\n        require(\r\n            senderAddress == patientAddress || \r\n            (isDoctorRegistered[senderAddress] && doctorPermissions[patientAddress][senderAddress].canUpdate), \r\n            \"Unauthorized access\"\r\n        );\r\n\r\n        Patient storage patient = patients[patientAddress];\r\n        for (uint i = 0; i < patient.healthRecords.length; i++) {\r\n            if (keccak256(bytes(patient.healthRecords[i].id)) == keccak256(bytes(recordId))) {\r\n                // Archive old record\r\n                patient.oldHealthRecords.push(HealthRecord({\r\n                    id: recordId,\r\n                    description: patient.healthRecords[i].description,\r\n                    cid: patient.healthRecords[i].cid,\r\n                    creatorAddress: patient.healthRecords[i].creatorAddress,\r\n                    recordType: patient.healthRecords[i].recordType,\r\n                    createdAt: patient.healthRecords[i].createdAt,\r\n                    isActive: false,\r\n                    version: patient.healthRecords[i].version,\r\n                    previousId: patient.healthRecords[i].previousId\r\n                }));\r\n\r\n                // Update current record\r\n                patient.healthRecords[i] = HealthRecord({\r\n                    id: newRecordId,\r\n                    description: description,\r\n                    cid: cid,\r\n                    creatorAddress: senderAddress,\r\n                    recordType: recordType,\r\n                    createdAt: createdAt,\r\n                    isActive: true,\r\n                    version: patient.healthRecords[i].version + 1,\r\n                    previousId: recordId\r\n                });\r\n\r\n                emit HealthRecordUpdated(patientAddress, recordId);\r\n                return;\r\n            }\r\n        }\r\n        revert(\"Health record not found\");\r\n    }\r\n\r\n    function deleteHealthRecord(\r\n        address senderAddress,\r\n        address patientAddress, \r\n        string memory recordId\r\n    ) external onlyRegisteredPatient(patientAddress) {\r\n        require(\r\n            senderAddress == patientAddress || \r\n            (isDoctorRegistered[senderAddress] && doctorPermissions[patientAddress][senderAddress].canDelete), \r\n            \"Unauthorized access\"\r\n        );\r\n\r\n        HealthRecord[] storage records = patients[patientAddress].healthRecords;\r\n        for (uint i = 0; i < records.length; i++) {\r\n            if (keccak256(bytes(records[i].id)) == keccak256(bytes(recordId))) {\r\n                records[i].isActive = false;\r\n                emit HealthRecordDeleted(patientAddress, recordId);\r\n                return;\r\n            }\r\n        }\r\n        revert(\"Health record not found\");\r\n    }\r\n\r\n    function revertDeleteHealthRecord(\r\n        address senderAddress,\r\n        address patientAddress, \r\n        string memory recordId\r\n    ) external onlyRegisteredPatient(patientAddress) {\r\n        require(\r\n            senderAddress == patientAddress || \r\n            (isDoctorRegistered[senderAddress] && doctorPermissions[patientAddress][senderAddress].canDelete), \r\n            \"Unauthorized access\"\r\n        );\r\n\r\n        HealthRecord[] storage records = patients[patientAddress].healthRecords;\r\n        for (uint i = 0; i < records.length; i++) {\r\n            if (keccak256(bytes(records[i].id)) == keccak256(bytes(recordId))) {\r\n                records[i].isActive = true;\r\n                emit HealthRecordRevertDeleted(patientAddress, recordId);\r\n                return;\r\n            }\r\n        }\r\n        revert(\"Health record not found\");\r\n    }\r\n\r\n    // Permission Management\r\n    // Pasien menyetujui akses dokter\r\n    function permissionPatientGrantDoctor(\r\n        address senderAddress,\r\n        address doctorAddress, \r\n        bool canCreate, \r\n        bool canRead, \r\n        bool canUpdate, \r\n        bool canDelete\r\n    ) external onlyRegisteredPatient(senderAddress) onlyRegisteredDoctor(doctorAddress) {\r\n        _updateDoctorPermission(senderAddress, doctorAddress, canCreate, canRead, canUpdate, canDelete, true);\r\n        emit AccessApproved(senderAddress, doctorAddress, canCreate, canRead, canUpdate, canDelete);\r\n    }\r\n//Pasien mencabut akses dokter\r\n    function permissionPatientRevokeDoctor(\r\n        address senderAddress,\r\n        address doctorAddress\r\n    ) external onlyRegisteredPatient(senderAddress) onlyRegisteredDoctor(doctorAddress) {\r\n        _removeDoctorAccess(senderAddress, doctorAddress);\r\n        emit AccessApproved(senderAddress, doctorAddress, false, false, false, false);\r\n    }\r\n\r\n    function requestAccessDoctor(\r\n        address senderAddress,\r\n        address patientAddress, \r\n        bool canCreate, \r\n        bool canRead, \r\n        bool canUpdate, \r\n        bool canDelete\r\n    ) external onlyRegisteredDoctor(senderAddress) onlyRegisteredPatient(patientAddress) {\r\n        doctorRequestAccess[patientAddress][senderAddress] = Access({\r\n            isRequested: true,\r\n            canCreate: canCreate,\r\n            canRead: canRead,\r\n            canUpdate: canUpdate,\r\n            canDelete: canDelete\r\n        });\r\n\r\n        _addToPendingLists(patientAddress, senderAddress);\r\n        emit AccessRequested(patientAddress, senderAddress, canCreate, canRead, canUpdate, canDelete);\r\n    }\r\n\r\n    function requestAccessApproved(\r\n        address senderAddress,\r\n        address doctorAddress\r\n    ) external onlyRegisteredPatient(senderAddress) onlyRegisteredDoctor(doctorAddress) {\r\n        Access memory request = doctorRequestAccess[senderAddress][doctorAddress];\r\n        require(request.isRequested, \"Access request not found\");\r\n\r\n        _updateDoctorPermission(senderAddress, doctorAddress, \r\n            request.canCreate, request.canRead, request.canUpdate, request.canDelete, true);\r\n        emit AccessApproved(senderAddress, doctorAddress, \r\n            request.canCreate, request.canRead, request.canUpdate, request.canDelete);\r\n    }\r\n\r\n    function requestAccessDenied(\r\n        address senderAddress,\r\n        address doctorAddress\r\n    ) external onlyRegisteredPatient(senderAddress) onlyRegisteredDoctor(doctorAddress) {\r\n        require(doctorRequestAccess[senderAddress][doctorAddress].isRequested, \"Access request not found\");\r\n        \r\n        _removeFromPendingLists(senderAddress, doctorAddress);\r\n        delete doctorRequestAccess[senderAddress][doctorAddress];\r\n        emit AccessDenied(senderAddress, doctorAddress);\r\n    }\r\n\r\n    // Helper functions for permission management\r\n    function _updateDoctorPermission(\r\n        address patientAddress,\r\n        address doctorAddress,\r\n        bool canCreate,\r\n        bool canRead,\r\n        bool canUpdate,\r\n        bool canDelete,\r\n        bool addToApproved\r\n    ) private {\r\n        doctorPermissions[patientAddress][doctorAddress] = Access({\r\n            isRequested: true,\r\n            canCreate: canCreate,\r\n            canRead: canRead,\r\n            canUpdate: canUpdate,\r\n            canDelete: canDelete\r\n        });\r\n\r\n        if (addToApproved) {\r\n            _addToApprovedLists(patientAddress, doctorAddress);\r\n        }\r\n        _removeFromPendingLists(patientAddress, doctorAddress);\r\n    }\r\n\r\n    function _removeDoctorAccess(address patientAddress, address doctorAddress) private {\r\n        delete doctorPermissions[patientAddress][doctorAddress];\r\n        delete doctorRequestAccess[patientAddress][doctorAddress];\r\n        _removeFromApprovedLists(patientAddress, doctorAddress);\r\n        _removeFromPendingLists(patientAddress, doctorAddress);\r\n    }\r\n//Cek keberadaan alamat dalam array\r\n    function _addToApprovedLists(address patientAddress, address doctorAddress) private {\r\n        if (!_addressExists(patients[patientAddress].doctors, doctorAddress)) {\r\n            patients[patientAddress].doctors.push(doctorAddress);\r\n        }\r\n        if (!_addressExists(doctors[doctorAddress].patients, patientAddress)) {\r\n            doctors[doctorAddress].patients.push(patientAddress);\r\n        }\r\n    }\r\n\r\n    function _removeFromApprovedLists(address patientAddress, address doctorAddress) private {\r\n        _removeAddressFromArray(patients[patientAddress].doctors, doctorAddress);\r\n        _removeAddressFromArray(doctors[doctorAddress].patients, patientAddress);\r\n    }\r\n\r\n    function _addToPendingLists(address patientAddress, address doctorAddress) private {\r\n        if (!_addressExists(patients[patientAddress].doctorsPending, doctorAddress)) {\r\n            patients[patientAddress].doctorsPending.push(doctorAddress);\r\n        }\r\n        if (!_addressExists(doctors[doctorAddress].patientsPending, patientAddress)) {\r\n            doctors[doctorAddress].patientsPending.push(patientAddress);\r\n        }\r\n    }\r\n\r\n    function _removeFromPendingLists(address patientAddress, address doctorAddress) private {\r\n        _removeAddressFromArray(patients[patientAddress].doctorsPending, doctorAddress);\r\n        _removeAddressFromArray(doctors[doctorAddress].patientsPending, patientAddress);\r\n    }\r\n\r\n    // View functions for permissions\r\n    function getPatientDoctors(address patientAddress) \r\n        external \r\n        view \r\n        onlyRegisteredPatient(patientAddress)\r\n        returns (AccessResponse[] memory approved, AccessResponse[] memory pending) \r\n    {\r\n        return (_getAccessResponses(patients[patientAddress].doctors, patientAddress, true),\r\n                _getAccessResponses(patients[patientAddress].doctorsPending, patientAddress, false));\r\n    }\r\n\r\n    function getDoctorPatients(address doctorAddress) \r\n        external \r\n        view \r\n        onlyRegisteredDoctor(doctorAddress)\r\n        returns (AccessResponse[] memory approved, AccessResponse[] memory pending) \r\n    {\r\n        return (_getAccessResponses(doctors[doctorAddress].patients, doctorAddress, true),\r\n                _getAccessResponses(doctors[doctorAddress].patientsPending, doctorAddress, false));\r\n    }\r\n\r\n    function getDoctorPermission(address doctorAddress, address patientAddress) \r\n        external \r\n        view \r\n        onlyRegisteredPatient(patientAddress) \r\n        onlyRegisteredDoctor(doctorAddress)\r\n        returns (AccessResponse memory) \r\n    {\r\n        Access memory permission = doctorPermissions[patientAddress][doctorAddress];\r\n        require(permission.isRequested, \"Permission not found\");\r\n        \r\n        return AccessResponse({\r\n            userAddress: doctorAddress,\r\n            canCreate: permission.canCreate,\r\n            canRead: permission.canRead,\r\n            canUpdate: permission.canUpdate,\r\n            canDelete: permission.canDelete\r\n        });\r\n    }\r\n\r\n    // Utility functions\r\n    function _getAccessResponses(address[] memory addresses, address userAddress, bool isApproved) \r\n        private \r\n        view \r\n        returns (AccessResponse[] memory) \r\n    {\r\n        AccessResponse[] memory responses = new AccessResponse[](addresses.length);\r\n        for (uint i = 0; i < addresses.length; i++) {\r\n            Access memory access = isApproved \r\n                ? doctorPermissions[userAddress][addresses[i]] \r\n                : doctorRequestAccess[userAddress][addresses[i]];\r\n            \r\n            responses[i] = AccessResponse({\r\n                userAddress: addresses[i],\r\n                canCreate: access.canCreate,\r\n                canRead: access.canRead,\r\n                canUpdate: access.canUpdate,\r\n                canDelete: access.canDelete\r\n            });\r\n        }\r\n        return responses;\r\n    }\r\n\r\n    function _addressExists(address[] storage array, address addr) private view returns (bool) {\r\n        for (uint i = 0; i < array.length; i++) {\r\n            if (array[i] == addr) {\r\n                return true;\r\n            }\r\n        }\r\n        return false;\r\n    }\r\n\r\n    function _removeAddressFromArray(address[] storage array, address addr) private {\r\n        for (uint i = 0; i < array.length; i++) {\r\n            if (array[i] == addr) {\r\n                array[i] = array[array.length - 1];\r\n                array.pop();\r\n                return;\r\n            }\r\n        }\r\n    }\r\n//Konversi alamat Ethereum ke string (untuk frontend)\r\n    function addressToString(address addr) public pure returns (string memory) {\r\n        bytes memory addressBytes = abi.encodePacked(addr);\r\n        bytes memory hexChars = \"0123456789abcdef\";\r\n        bytes memory str = new bytes(42);\r\n\r\n        str[0] = '0';\r\n        str[1] = 'x';\r\n        for (uint i = 0; i < 20; i++) {\r\n            str[2 + i * 2] = hexChars[uint(uint8(addressBytes[i] >> 4))];\r\n            str[3 + i * 2] = hexChars[uint(uint8(addressBytes[i] & 0x0f))];\r\n        }\r\n        return string(str);\r\n    }\r\n\r\n    // Test function\r\n    function testSendTransaction(string memory message) external {\r\n        emit SendTest(msg.sender, message);\r\n    }\r\n}",
  "sourcePath": "D:\\Semester 7\\TA\\source code\\Personal-Herbal-Recommendation\\backend\\contracts\\StorageHealthRecords.sol",
  "compiler": {
    "name": "solc",
    "version": "0.8.19+commit.7dd6d404.Emscripten.clang"
  },
  "schemaVersion": "3.4.16",
  "updatedAt": "2025-12-20T16:48:48.407Z",
  "networkType": "ethereum",
  "devdoc": {
    "kind": "dev",
    "methods": {},
    "version": 1
  },
  "userdoc": {
    "kind": "user",
    "methods": {},
    "version": 1
  }
}